{"abi":[{"type":"constructor","inputs":[{"name":"_carbonTokenAddress","type":"address","internalType":"address"}],"stateMutability":"nonpayable"},{"type":"function","name":"addressToClaims","inputs":[{"name":"","type":"address","internalType":"address"},{"name":"","type":"uint256","internalType":"uint256"}],"outputs":[{"name":"id","type":"uint256","internalType":"uint256"},{"name":"organisationAddress","type":"address","internalType":"address"},{"name":"demandedCarbonCredits","type":"uint256","internalType":"uint256"},{"name":"voting_end_time","type":"uint256","internalType":"uint256"},{"name":"status","type":"uint256","internalType":"uint256"},{"name":"description","type":"string","internalType":"string"},{"name":"latitudes","type":"uint256","internalType":"uint256"},{"name":"longitudes","type":"uint256","internalType":"uint256"},{"name":"yes_votes","type":"uint256","internalType":"uint256"},{"name":"no_votes","type":"uint256","internalType":"uint256"},{"name":"total_votes","type":"uint256","internalType":"uint256"}],"stateMutability":"view"},{"type":"function","name":"addressToLendRequests","inputs":[{"name":"","type":"address","internalType":"address"},{"name":"","type":"uint256","internalType":"uint256"}],"outputs":[{"name":"id","type":"uint256","internalType":"uint256"},{"name":"borrowerAddress","type":"address","internalType":"address"},{"name":"lenderAddress","type":"address","internalType":"address"},{"name":"carbonCredits","type":"uint256","internalType":"uint256"},{"name":"response","type":"uint256","internalType":"uint256"},{"name":"interestRate","type":"uint256","internalType":"uint256"},{"name":"timeOfissue","type":"uint256","internalType":"uint256"},{"name":"eligibilityScore","type":"uint256","internalType":"uint256"},{"name":"proofData","type":"string","internalType":"string"},{"name":"status","type":"uint256","internalType":"uint256"}],"stateMutability":"view"},{"type":"function","name":"addressToOrganisation","inputs":[{"name":"","type":"address","internalType":"address"}],"outputs":[{"name":"name","type":"string","internalType":"string"},{"name":"description","type":"string","internalType":"string"},{"name":"profilePhotoipfsHashCode","type":"string","internalType":"string"},{"name":"walletAddress","type":"address","internalType":"address"},{"name":"timesBorrowed","type":"uint256","internalType":"uint256"},{"name":"timesLent","type":"uint256","internalType":"uint256"},{"name":"totalCarbonCreditsLent","type":"uint256","internalType":"uint256"},{"name":"totalCarbonCreditsBorrowed","type":"uint256","internalType":"uint256"},{"name":"totalCarbonCreditsReturned","type":"uint256","internalType":"uint256"},{"name":"emissions","type":"uint256","internalType":"uint256"},{"name":"reputationScore","type":"uint256","internalType":"uint256"}],"stateMutability":"view"},{"type":"function","name":"carbonToken","inputs":[],"outputs":[{"name":"","type":"address","internalType":"contract CarbonCredit"}],"stateMutability":"view"},{"type":"function","name":"carbonTokenAddress","inputs":[],"outputs":[{"name":"","type":"address","internalType":"address"}],"stateMutability":"view"},{"type":"function","name":"claimIdToClaim","inputs":[{"name":"","type":"uint256","internalType":"uint256"}],"outputs":[{"name":"id","type":"uint256","internalType":"uint256"},{"name":"organisationAddress","type":"address","internalType":"address"},{"name":"demandedCarbonCredits","type":"uint256","internalType":"uint256"},{"name":"voting_end_time","type":"uint256","internalType":"uint256"},{"name":"status","type":"uint256","internalType":"uint256"},{"name":"description","type":"string","internalType":"string"},{"name":"latitudes","type":"uint256","internalType":"uint256"},{"name":"longitudes","type":"uint256","internalType":"uint256"},{"name":"yes_votes","type":"uint256","internalType":"uint256"},{"name":"no_votes","type":"uint256","internalType":"uint256"},{"name":"total_votes","type":"uint256","internalType":"uint256"}],"stateMutability":"view"},{"type":"function","name":"claimIdToVoters","inputs":[{"name":"","type":"uint256","internalType":"uint256"},{"name":"","type":"uint256","internalType":"uint256"}],"outputs":[{"name":"","type":"address","internalType":"address"}],"stateMutability":"view"},{"type":"function","name":"claimIdToVotersNo","inputs":[{"name":"","type":"uint256","internalType":"uint256"},{"name":"","type":"uint256","internalType":"uint256"}],"outputs":[{"name":"","type":"address","internalType":"address"}],"stateMutability":"view"},{"type":"function","name":"claimIdToVotersYes","inputs":[{"name":"","type":"uint256","internalType":"uint256"},{"name":"","type":"uint256","internalType":"uint256"}],"outputs":[{"name":"","type":"address","internalType":"address"}],"stateMutability":"view"},{"type":"function","name":"createClaim","inputs":[{"name":"_demandedCarbonCredits","type":"uint256","internalType":"uint256"},{"name":"_voting_end_time","type":"uint256","internalType":"uint256"},{"name":"_description","type":"string","internalType":"string"},{"name":"_latitudes","type":"uint256","internalType":"uint256"},{"name":"_longitudes","type":"uint256","internalType":"uint256"},{"name":"_proofIpfsHashCode","type":"string[]","internalType":"string[]"}],"outputs":[],"stateMutability":"nonpayable"},{"type":"function","name":"createLendRequest","inputs":[{"name":"_lenderAddress","type":"address","internalType":"address"},{"name":"_carbonCredits","type":"uint256","internalType":"uint256"},{"name":"_interestRate","type":"uint256","internalType":"uint256"},{"name":"_proofData","type":"string","internalType":"string"}],"outputs":[],"stateMutability":"nonpayable"},{"type":"function","name":"createOrganisation","inputs":[{"name":"_name","type":"string","internalType":"string"},{"name":"_description","type":"string","internalType":"string"},{"name":"_profilePhotoipfsHashCode","type":"string","internalType":"string"},{"name":"_walletAddress","type":"address","internalType":"address"},{"name":"_timesBorrowed","type":"uint256","internalType":"uint256"},{"name":"_timesLent","type":"uint256","internalType":"uint256"},{"name":"_totalCarbonCreditsLent","type":"uint256","internalType":"uint256"},{"name":"_totalCarbonCreditsBorrowed","type":"uint256","internalType":"uint256"},{"name":"_totalCarbonCreditsReturned","type":"uint256","internalType":"uint256"},{"name":"_emissions","type":"uint256","internalType":"uint256"},{"name":"_reputationScore","type":"uint256","internalType":"uint256"}],"outputs":[],"stateMutability":"nonpayable"},{"type":"function","name":"getAllOrganisationDetails","inputs":[],"outputs":[{"name":"","type":"tuple[]","internalType":"struct OrganisationPublicView[]","components":[{"name":"name","type":"string","internalType":"string"},{"name":"description","type":"string","internalType":"string"},{"name":"profilePhotoipfsHashCode","type":"string","internalType":"string"},{"name":"totalCarbonCredits","type":"uint256","internalType":"uint256"}]}],"stateMutability":"view"},{"type":"function","name":"getBalanceOfOrganisation","inputs":[],"outputs":[{"name":"","type":"uint256","internalType":"uint256"}],"stateMutability":"view"},{"type":"function","name":"getClaimDetailsPublic","inputs":[{"name":"_claimId","type":"uint256","internalType":"uint256"}],"outputs":[{"name":"","type":"tuple","internalType":"struct ClaimPublicView","components":[{"name":"id","type":"uint256","internalType":"uint256"},{"name":"organisationAddress","type":"address","internalType":"address"},{"name":"demandedCarbonCredits","type":"uint256","internalType":"uint256"},{"name":"voting_end_time","type":"uint256","internalType":"uint256"},{"name":"status","type":"uint256","internalType":"uint256"},{"name":"description","type":"string","internalType":"string"},{"name":"latitudes","type":"uint256","internalType":"uint256"},{"name":"longitudes","type":"uint256","internalType":"uint256"},{"name":"proofIpfsHashCode","type":"string[]","internalType":"string[]"},{"name":"yes_votes","type":"uint256","internalType":"uint256"},{"name":"no_votes","type":"uint256","internalType":"uint256"},{"name":"total_votes","type":"uint256","internalType":"uint256"}]}],"stateMutability":"view"},{"type":"function","name":"getLendRequestDetails","inputs":[{"name":"_borrowerAddress","type":"address","internalType":"address"},{"name":"_requestId","type":"uint256","internalType":"uint256"}],"outputs":[{"name":"","type":"tuple","internalType":"struct LendRequest","components":[{"name":"id","type":"uint256","internalType":"uint256"},{"name":"borrowerAddress","type":"address","internalType":"address"},{"name":"lenderAddress","type":"address","internalType":"address"},{"name":"carbonCredits","type":"uint256","internalType":"uint256"},{"name":"response","type":"uint256","internalType":"uint256"},{"name":"interestRate","type":"uint256","internalType":"uint256"},{"name":"timeOfissue","type":"uint256","internalType":"uint256"},{"name":"eligibilityScore","type":"uint256","internalType":"uint256"},{"name":"proofData","type":"string","internalType":"string"},{"name":"status","type":"uint256","internalType":"uint256"}]}],"stateMutability":"view"},{"type":"function","name":"getMyOrganisationDetails","inputs":[],"outputs":[{"name":"","type":"tuple","internalType":"struct Organisation","components":[{"name":"name","type":"string","internalType":"string"},{"name":"description","type":"string","internalType":"string"},{"name":"profilePhotoipfsHashCode","type":"string","internalType":"string"},{"name":"walletAddress","type":"address","internalType":"address"},{"name":"timesBorrowed","type":"uint256","internalType":"uint256"},{"name":"timesLent","type":"uint256","internalType":"uint256"},{"name":"totalCarbonCreditsLent","type":"uint256","internalType":"uint256"},{"name":"totalCarbonCreditsBorrowed","type":"uint256","internalType":"uint256"},{"name":"totalCarbonCreditsReturned","type":"uint256","internalType":"uint256"},{"name":"emissions","type":"uint256","internalType":"uint256"},{"name":"reputationScore","type":"uint256","internalType":"uint256"}]}],"stateMutability":"view"},{"type":"function","name":"getOrganisationDetails","inputs":[{"name":"_organisationAddress","type":"address","internalType":"address"}],"outputs":[{"name":"","type":"tuple","internalType":"struct Organisation","components":[{"name":"name","type":"string","internalType":"string"},{"name":"description","type":"string","internalType":"string"},{"name":"profilePhotoipfsHashCode","type":"string","internalType":"string"},{"name":"walletAddress","type":"address","internalType":"address"},{"name":"timesBorrowed","type":"uint256","internalType":"uint256"},{"name":"timesLent","type":"uint256","internalType":"uint256"},{"name":"totalCarbonCreditsLent","type":"uint256","internalType":"uint256"},{"name":"totalCarbonCreditsBorrowed","type":"uint256","internalType":"uint256"},{"name":"totalCarbonCreditsReturned","type":"uint256","internalType":"uint256"},{"name":"emissions","type":"uint256","internalType":"uint256"},{"name":"reputationScore","type":"uint256","internalType":"uint256"}]}],"stateMutability":"view"},{"type":"function","name":"getUserClaims","inputs":[],"outputs":[{"name":"","type":"tuple[]","internalType":"struct Claim[]","components":[{"name":"id","type":"uint256","internalType":"uint256"},{"name":"organisationAddress","type":"address","internalType":"address"},{"name":"demandedCarbonCredits","type":"uint256","internalType":"uint256"},{"name":"voting_end_time","type":"uint256","internalType":"uint256"},{"name":"status","type":"uint256","internalType":"uint256"},{"name":"description","type":"string","internalType":"string"},{"name":"latitudes","type":"uint256","internalType":"uint256"},{"name":"longitudes","type":"uint256","internalType":"uint256"},{"name":"yes_votes","type":"uint256","internalType":"uint256"},{"name":"no_votes","type":"uint256","internalType":"uint256"},{"name":"total_votes","type":"uint256","internalType":"uint256"},{"name":"proofIpfsHashCode","type":"string[]","internalType":"string[]"}]}],"stateMutability":"view"},{"type":"function","name":"getUserLendRequests","inputs":[],"outputs":[{"name":"","type":"tuple[]","internalType":"struct LendRequest[]","components":[{"name":"id","type":"uint256","internalType":"uint256"},{"name":"borrowerAddress","type":"address","internalType":"address"},{"name":"lenderAddress","type":"address","internalType":"address"},{"name":"carbonCredits","type":"uint256","internalType":"uint256"},{"name":"response","type":"uint256","internalType":"uint256"},{"name":"interestRate","type":"uint256","internalType":"uint256"},{"name":"timeOfissue","type":"uint256","internalType":"uint256"},{"name":"eligibilityScore","type":"uint256","internalType":"uint256"},{"name":"proofData","type":"string","internalType":"string"},{"name":"status","type":"uint256","internalType":"uint256"}]}],"stateMutability":"view"},{"type":"function","name":"handleVotingResult","inputs":[{"name":"_claimId","type":"uint256","internalType":"uint256"}],"outputs":[],"stateMutability":"nonpayable"},{"type":"function","name":"lendrequestIdToLendRequest","inputs":[{"name":"","type":"uint256","internalType":"uint256"}],"outputs":[{"name":"id","type":"uint256","internalType":"uint256"},{"name":"borrowerAddress","type":"address","internalType":"address"},{"name":"lenderAddress","type":"address","internalType":"address"},{"name":"carbonCredits","type":"uint256","internalType":"uint256"},{"name":"response","type":"uint256","internalType":"uint256"},{"name":"interestRate","type":"uint256","internalType":"uint256"},{"name":"timeOfissue","type":"uint256","internalType":"uint256"},{"name":"eligibilityScore","type":"uint256","internalType":"uint256"},{"name":"proofData","type":"string","internalType":"string"},{"name":"status","type":"uint256","internalType":"uint256"}],"stateMutability":"view"},{"type":"function","name":"organisationIDToOrganisation","inputs":[{"name":"","type":"uint256","internalType":"uint256"}],"outputs":[{"name":"name","type":"string","internalType":"string"},{"name":"description","type":"string","internalType":"string"},{"name":"profilePhotoipfsHashCode","type":"string","internalType":"string"},{"name":"walletAddress","type":"address","internalType":"address"},{"name":"timesBorrowed","type":"uint256","internalType":"uint256"},{"name":"timesLent","type":"uint256","internalType":"uint256"},{"name":"totalCarbonCreditsLent","type":"uint256","internalType":"uint256"},{"name":"totalCarbonCreditsBorrowed","type":"uint256","internalType":"uint256"},{"name":"totalCarbonCreditsReturned","type":"uint256","internalType":"uint256"},{"name":"emissions","type":"uint256","internalType":"uint256"},{"name":"reputationScore","type":"uint256","internalType":"uint256"}],"stateMutability":"view"},{"type":"function","name":"paybackLendRequest","inputs":[{"name":"_requestId","type":"uint256","internalType":"uint256"}],"outputs":[],"stateMutability":"nonpayable"},{"type":"function","name":"recordOrganisationEmissions","inputs":[{"name":"_emissions","type":"uint256","internalType":"uint256"}],"outputs":[],"stateMutability":"nonpayable"},{"type":"function","name":"respondToLendRequest","inputs":[{"name":"_requestId","type":"uint256","internalType":"uint256"},{"name":"_response","type":"uint256","internalType":"uint256"}],"outputs":[],"stateMutability":"nonpayable"},{"type":"function","name":"updateOrganisationDetails","inputs":[{"name":"_name","type":"string","internalType":"string"},{"name":"_description","type":"string","internalType":"string"},{"name":"_profilePhotoipfsHashCode","type":"string","internalType":"string"},{"name":"_totalCarbonCredits","type":"uint256","internalType":"uint256"}],"outputs":[],"stateMutability":"nonpayable"},{"type":"function","name":"vote","inputs":[{"name":"_claimId","type":"uint256","internalType":"uint256"},{"name":"_vote","type":"bool","internalType":"bool"}],"outputs":[],"stateMutability":"nonpayable"}],"bytecode":{"object":"0x60806040525f5f555f6001555f60025534801561001a575f5ffd5b50604051615cb8380380615cb8833981810160405281019061003c9190610120565b8060035f6101000a81548173ffffffffffffffffffffffffffffffffffffffff021916908373ffffffffffffffffffffffffffffffffffffffff16021790555080600d5f6101000a81548173ffffffffffffffffffffffffffffffffffffffff021916908373ffffffffffffffffffffffffffffffffffffffff1602179055505061014b565b5f5ffd5b5f73ffffffffffffffffffffffffffffffffffffffff82169050919050565b5f6100ef826100c6565b9050919050565b6100ff816100e5565b8114610109575f5ffd5b50565b5f8151905061011a816100f6565b92915050565b5f60208284031215610135576101346100c2565b5b5f6101428482850161010c565b91505092915050565b615b60806101585f395ff3fe608060405234801561000f575f5ffd5b50600436106101c1575f3560e01c806396b946d8116100f7578063cd8692b011610095578063e6767a4b1161006f578063e6767a4b14610557578063efd441d514610591578063f9faec00146105ad578063fbd1b396146105dd576101c1565b8063cd8692b0146104e2578063d54f3a4114610500578063e416986614610539576101c1565b80639ae57ee3116100d15780639ae57ee31461045c5780639d8eb84e1461047a578063c6fee314146104aa578063c9d27afe146104c6576101c1565b806396b946d8146103c357806397d4e30c146103f357806399758ef21461042c576101c1565b8063437b78371161016457806367aa46b51161013e57806367aa46b5146103515780637dc828711461036d57806382a71ef2146103895780638ab7e6b5146103a7576101c1565b8063437b7837146102df578063625d42011461031957806366f59cf714610335576101c1565b8063216e14fb116101a0578063216e14fb1461022f57806323d4b9801461024d5780632b2a2a141461028757806330d4a63a146102a5576101c1565b8062c59439146101c5578063115dbad6146101e157806320e0df2d14610211575b5f5ffd5b6101df60048036038101906101da9190613c92565b61060d565b005b6101fb60048036038101906101f69190613c92565b61066b565b6040516102089190613f3e565b60405180910390f35b610219610919565b6040516102269190614087565b60405180910390f35b610237610cfa565b604051610244919061426a565b60405180910390f35b61026760048036038101906102629190613c92565b610fa4565b60405161027e9b9a999897969594939291906142f0565b60405180910390f35b61028f6111ab565b60405161029c9190614540565b60405180910390f35b6102bf60048036038101906102ba919061458a565b6113c2565b6040516102d69b9a999897969594939291906145c8565b60405180910390f35b6102f960048036038101906102f49190613c92565b6114d7565b6040516103109b9a999897969594939291906145c8565b60405180910390f35b610333600480360381019061032e9190613c92565b6115d2565b005b61034f600480360381019061034a9190614886565b6118f3565b005b61036b60048036038101906103669190614947565b611b2e565b005b61038760048036038101906103829190614a88565b611d46565b005b610391611fc7565b60405161039e9190614b63565b60405180910390f35b6103c160048036038101906103bc9190614b7c565b611fec565b005b6103dd60048036038101906103d8919061458a565b612068565b6040516103ea9190614d0b565b60405180910390f35b61040d6004803603810190610408919061458a565b61225e565b6040516104239a99989796959493929190614d2b565b60405180910390f35b61044660048036038101906104419190614dcc565b61238c565b6040516104539190614e0a565b60405180910390f35b6104646123d4565b6040516104719190614e23565b60405180910390f35b610494600480360381019061048f9190614dcc565b612473565b6040516104a19190614e0a565b60405180910390f35b6104c460048036038101906104bf9190613c92565b6124bb565b005b6104e060048036038101906104db9190614e71565b6128aa565b005b6104ea612cbc565b6040516104f79190614e0a565b60405180910390f35b61051a60048036038101906105159190613c92565b612ce1565b6040516105309a99989796959493929190614d2b565b60405180910390f35b610541612df5565b60405161054e9190614fa9565b60405180910390f35b610571600480360381019061056c9190614fc9565b613095565b6040516105889b9a999897969594939291906142f0565b60405180910390f35b6105ab60048036038101906105a69190614dcc565b61329c565b005b6105c760048036038101906105c29190614fc9565b6136c7565b6040516105d49190614fa9565b60405180910390f35b6105f760048036038101906105f29190614dcc565b613969565b6040516106049190614e0a565b60405180910390f35b5f60045f3373ffffffffffffffffffffffffffffffffffffffff1673ffffffffffffffffffffffffffffffffffffffff1681526020019081526020015f20905081816009015f8282546106609190615021565b925050819055505050565b6106736139b1565b5f600b5f8481526020019081526020015f20905082815f0154146106cc576040517f08c379a00000000000000000000000000000000000000000000000000000000081526004016106c39061509e565b60405180910390fd5b5f816008015490505f826009015490505f83600a0154905083600301544211156106fe575f92505f91505f9050610714565b836008015492508360090154915083600a015490505b604051806101800160405280855f01548152602001856001015f9054906101000a900473ffffffffffffffffffffffffffffffffffffffff1673ffffffffffffffffffffffffffffffffffffffff168152602001856002015481526020018560030154815260200185600401548152602001856005018054610795906150e9565b80601f01602080910402602001604051908101604052809291908181526020018280546107c1906150e9565b801561080c5780601f106107e35761010080835404028352916020019161080c565b820191905f5260205f20905b8154815290600101906020018083116107ef57829003601f168201915b50505050508152602001856006015481526020018560070154815260200185600b01805480602002602001604051908101604052809291908181526020015f905b828210156108f5578382905f5260205f2001805461086a906150e9565b80601f0160208091040260200160405190810160405280929190818152602001828054610896906150e9565b80156108e15780601f106108b8576101008083540402835291602001916108e1565b820191905f5260205f20905b8154815290600101906020018083116108c457829003601f168201915b50505050508152602001906001019061084d565b50505050815260200184815260200183815260200182815250945050505050919050565b60605f5f5467ffffffffffffffff81111561093757610936614680565b5b60405190808252806020026020018201604052801561097057816020015b61095d613a1e565b8152602001906001900390816109555790505b5090505f5f90505f5f90505b5f54811015610cf1575f600c5f8381526020019081526020015f20604051806101600160405290815f820180546109b2906150e9565b80601f01602080910402602001604051908101604052809291908181526020018280546109de906150e9565b8015610a295780601f10610a0057610100808354040283529160200191610a29565b820191905f5260205f20905b815481529060010190602001808311610a0c57829003601f168201915b50505050508152602001600182018054610a42906150e9565b80601f0160208091040260200160405190810160405280929190818152602001828054610a6e906150e9565b8015610ab95780601f10610a9057610100808354040283529160200191610ab9565b820191905f5260205f20905b815481529060010190602001808311610a9c57829003601f168201915b50505050508152602001600282018054610ad2906150e9565b80601f0160208091040260200160405190810160405280929190818152602001828054610afe906150e9565b8015610b495780601f10610b2057610100808354040283529160200191610b49565b820191905f5260205f20905b815481529060010190602001808311610b2c57829003601f168201915b50505050508152602001600382015f9054906101000a900473ffffffffffffffffffffffffffffffffffffffff1673ffffffffffffffffffffffffffffffffffffffff1673ffffffffffffffffffffffffffffffffffffffff168152602001600482015481526020016005820154815260200160068201548152602001600782015481526020016008820154815260200160098201548152602001600a8201548152505090506040518060800160405280825f015181526020018260200151815260200182604001518152602001600d5f9054906101000a900473ffffffffffffffffffffffffffffffffffffffff1673ffffffffffffffffffffffffffffffffffffffff166370a0823184606001516040518263ffffffff1660e01b8152600401610c759190614e0a565b602060405180830381865afa158015610c90573d5f5f3e3d5ffd5b505050506040513d601f19601f82011682018060405250810190610cb4919061512d565b815250848481518110610cca57610cc9615158565b5b60200260200101819052508280610ce090615185565b93505050808060010191505061097c565b50819250505090565b606060055f3373ffffffffffffffffffffffffffffffffffffffff1673ffffffffffffffffffffffffffffffffffffffff1681526020019081526020015f20805480602002602001604051908101604052809291908181526020015f905b82821015610f9b578382905f5260205f2090600c0201604051806101800160405290815f8201548152602001600182015f9054906101000a900473ffffffffffffffffffffffffffffffffffffffff1673ffffffffffffffffffffffffffffffffffffffff1673ffffffffffffffffffffffffffffffffffffffff168152602001600282015481526020016003820154815260200160048201548152602001600582018054610e06906150e9565b80601f0160208091040260200160405190810160405280929190818152602001828054610e32906150e9565b8015610e7d5780601f10610e5457610100808354040283529160200191610e7d565b820191905f5260205f20905b815481529060010190602001808311610e6057829003601f168201915b5050505050815260200160068201548152602001600782015481526020016008820154815260200160098201548152602001600a8201548152602001600b8201805480602002602001604051908101604052809291908181526020015f905b82821015610f84578382905f5260205f20018054610ef9906150e9565b80601f0160208091040260200160405190810160405280929190818152602001828054610f25906150e9565b8015610f705780601f10610f4757610100808354040283529160200191610f70565b820191905f5260205f20905b815481529060010190602001808311610f5357829003601f168201915b505050505081526020019060010190610edc565b505050508152505081526020019060010190610d58565b50505050905090565b600c602052805f5260405f205f91509050805f018054610fc3906150e9565b80601f0160208091040260200160405190810160405280929190818152602001828054610fef906150e9565b801561103a5780601f106110115761010080835404028352916020019161103a565b820191905f5260205f20905b81548152906001019060200180831161101d57829003601f168201915b50505050509080600101805461104f906150e9565b80601f016020809104026020016040519081016040528092919081815260200182805461107b906150e9565b80156110c65780601f1061109d576101008083540402835291602001916110c6565b820191905f5260205f20905b8154815290600101906020018083116110a957829003601f168201915b5050505050908060020180546110db906150e9565b80601f0160208091040260200160405190810160405280929190818152602001828054611107906150e9565b80156111525780601f1061112957610100808354040283529160200191611152565b820191905f5260205f20905b81548152906001019060200180831161113557829003601f168201915b505050505090806003015f9054906101000a900473ffffffffffffffffffffffffffffffffffffffff169080600401549080600501549080600601549080600701549080600801549080600901549080600a015490508b565b606060065f3373ffffffffffffffffffffffffffffffffffffffff1673ffffffffffffffffffffffffffffffffffffffff1681526020019081526020015f20805480602002602001604051908101604052809291908181526020015f905b828210156113b9578382905f5260205f2090600a0201604051806101400160405290815f8201548152602001600182015f9054906101000a900473ffffffffffffffffffffffffffffffffffffffff1673ffffffffffffffffffffffffffffffffffffffff1673ffffffffffffffffffffffffffffffffffffffff168152602001600282015f9054906101000a900473ffffffffffffffffffffffffffffffffffffffff1673ffffffffffffffffffffffffffffffffffffffff1673ffffffffffffffffffffffffffffffffffffffff1681526020016003820154815260200160048201548152602001600582015481526020016006820154815260200160078201548152602001600882018054611320906150e9565b80601f016020809104026020016040519081016040528092919081815260200182805461134c906150e9565b80156113975780601f1061136e57610100808354040283529160200191611397565b820191905f5260205f20905b81548152906001019060200180831161137a57829003601f168201915b5050505050815260200160098201548152505081526020019060010190611209565b50505050905090565b6005602052815f5260405f2081815481106113db575f80fd5b905f5260205f2090600c02015f9150915050805f015490806001015f9054906101000a900473ffffffffffffffffffffffffffffffffffffffff1690806002015490806003015490806004015490806005018054611438906150e9565b80601f0160208091040260200160405190810160405280929190818152602001828054611464906150e9565b80156114af5780601f10611486576101008083540402835291602001916114af565b820191905f5260205f20905b81548152906001019060200180831161149257829003601f168201915b50505050509080600601549080600701549080600801549080600901549080600a015490508b565b600b602052805f5260405f205f91509050805f015490806001015f9054906101000a900473ffffffffffffffffffffffffffffffffffffffff1690806002015490806003015490806004015490806005018054611533906150e9565b80601f016020809104026020016040519081016040528092919081815260200182805461155f906150e9565b80156115aa5780601f10611581576101008083540402835291602001916115aa565b820191905f5260205f20905b81548152906001019060200180831161158d57829003601f168201915b50505050509080600601549080600701549080600801549080600901549080600a015490508b565b5f600a5f8381526020019081526020015f2090505f8160030154905082825f015414611633576040517f08c379a000000000000000000000000000000000000000000000000000000000815260040161162a90615216565b60405180910390fd5b816001015f9054906101000a900473ffffffffffffffffffffffffffffffffffffffff1673ffffffffffffffffffffffffffffffffffffffff163373ffffffffffffffffffffffffffffffffffffffff16146116c4576040517f08c379a00000000000000000000000000000000000000000000000000000000081526004016116bb9061527e565b60405180910390fd5b600182600401541461170b576040517f08c379a0000000000000000000000000000000000000000000000000000000008152600401611702906152e6565b60405180910390fd5b8160030154811115611752576040517f08c379a00000000000000000000000000000000000000000000000000000000081526004016117499061534e565b60405180910390fd5b5f6301e13380836006015442611768919061536c565b60648560050154866003015461177e919061539f565b611788919061540d565b611792919061539f565b61179c919061540d565b9050600d5f9054906101000a900473ffffffffffffffffffffffffffffffffffffffff1673ffffffffffffffffffffffffffffffffffffffff16639dc29fac33836040518363ffffffff1660e01b81526004016117fa92919061543d565b5f604051808303815f87803b158015611811575f5ffd5b505af1158015611823573d5f5f3e3d5ffd5b50505050600d5f9054906101000a900473ffffffffffffffffffffffffffffffffffffffff1673ffffffffffffffffffffffffffffffffffffffff166340c10f19846002015f9054906101000a900473ffffffffffffffffffffffffffffffffffffffff16836040518363ffffffff1660e01b81526004016118a692919061543d565b5f604051808303815f87803b1580156118bd575f5ffd5b505af11580156118cf573d5f5f3e3d5ffd5b5050505080836003015f8282546118e6919061536c565b9250508190555050505050565b5f60055f3373ffffffffffffffffffffffffffffffffffffffff1673ffffffffffffffffffffffffffffffffffffffff1681526020019081526020015f2060018160018154018082558091505003905f5260205f2090600c02019050600154815f018190555033816001015f6101000a81548173ffffffffffffffffffffffffffffffffffffffff021916908373ffffffffffffffffffffffffffffffffffffffff1602179055508681600201819055508581600301819055505f8160040181905550848160050190816119c791906155fb565b508381600601819055508281600701819055505f81600801819055505f81600901819055505f81600a01819055508181600b019080519060200190611a0d929190613a45565b5080600b5f60015481526020019081526020015f205f820154815f0155600182015f9054906101000a900473ffffffffffffffffffffffffffffffffffffffff16816001015f6101000a81548173ffffffffffffffffffffffffffffffffffffffff021916908373ffffffffffffffffffffffffffffffffffffffff16021790555060028201548160020155600382015481600301556004820154816004015560058201816005019081611ac191906156df565b5060068201548160060155600782015481600701556008820154816008015560098201548160090155600a82015481600a0155600b820181600b01908054611b0a929190613a9c565b5090505060015f815480929190611b2090615185565b919050555050505050505050565b5f60045f3373ffffffffffffffffffffffffffffffffffffffff1673ffffffffffffffffffffffffffffffffffffffff1681526020019081526020015f2090508b815f019081611b7e91906155fb565b508a816001019081611b9091906155fb565b5089816002019081611ba291906155fb565b5088816003015f6101000a81548173ffffffffffffffffffffffffffffffffffffffff021916908373ffffffffffffffffffffffffffffffffffffffff1602179055508781600401819055508681600501819055505f81600601819055505f81600701819055505f81600801819055505f81600901819055505f81600a018190555080600c5f5f5481526020019081526020015f205f8201815f019081611c4991906156df565b5060018201816001019081611c5e91906156df565b5060028201816002019081611c7391906156df565b50600382015f9054906101000a900473ffffffffffffffffffffffffffffffffffffffff16816003015f6101000a81548173ffffffffffffffffffffffffffffffffffffffff021916908373ffffffffffffffffffffffffffffffffffffffff160217905550600482015481600401556005820154816005015560068201548160060155600782015481600701556008820154816008015560098201548160090155600a82015481600a01559050505f5f815480929190611d3390615185565b9190505550505050505050505050505050565b5f60065f3373ffffffffffffffffffffffffffffffffffffffff1673ffffffffffffffffffffffffffffffffffffffff1681526020019081526020015f2060018160018154018082558091505003905f5260205f2090600a02019050600254815f018190555033816001015f6101000a81548173ffffffffffffffffffffffffffffffffffffffff021916908373ffffffffffffffffffffffffffffffffffffffff16021790555084816002015f6101000a81548173ffffffffffffffffffffffffffffffffffffffff021916908373ffffffffffffffffffffffffffffffffffffffff1602179055508381600301819055505f81600401819055508281600501819055504281600601819055505f816007018190555081816008019081611e6e91906155fb565b5080600a5f60025481526020019081526020015f205f820154815f0155600182015f9054906101000a900473ffffffffffffffffffffffffffffffffffffffff16816001015f6101000a81548173ffffffffffffffffffffffffffffffffffffffff021916908373ffffffffffffffffffffffffffffffffffffffff160217905550600282015f9054906101000a900473ffffffffffffffffffffffffffffffffffffffff16816002015f6101000a81548173ffffffffffffffffffffffffffffffffffffffff021916908373ffffffffffffffffffffffffffffffffffffffff160217905550600382015481600301556004820154816004015560058201548160050155600682015481600601556007820154816007015560088201816008019081611f9b91906156df565b506009820154816009015590505060025f815480929190611fbb90615185565b91905055505050505050565b600d5f9054906101000a900473ffffffffffffffffffffffffffffffffffffffff1681565b5f60045f3373ffffffffffffffffffffffffffffffffffffffff1673ffffffffffffffffffffffffffffffffffffffff1681526020019081526020015f20905084815f01908161203c91906155fb565b508381600101908161204e91906155fb565b508281600201908161206091906155fb565b505050505050565b612070613af5565b60065f8473ffffffffffffffffffffffffffffffffffffffff1673ffffffffffffffffffffffffffffffffffffffff1681526020019081526020015f2082815481106120bf576120be615158565b5b905f5260205f2090600a0201604051806101400160405290815f8201548152602001600182015f9054906101000a900473ffffffffffffffffffffffffffffffffffffffff1673ffffffffffffffffffffffffffffffffffffffff1673ffffffffffffffffffffffffffffffffffffffff168152602001600282015f9054906101000a900473ffffffffffffffffffffffffffffffffffffffff1673ffffffffffffffffffffffffffffffffffffffff1673ffffffffffffffffffffffffffffffffffffffff16815260200160038201548152602001600482015481526020016005820154815260200160068201548152602001600782015481526020016008820180546121cc906150e9565b80601f01602080910402602001604051908101604052809291908181526020018280546121f8906150e9565b80156122435780601f1061221a57610100808354040283529160200191612243565b820191905f5260205f20905b81548152906001019060200180831161222657829003601f168201915b50505050508152602001600982015481525050905092915050565b6006602052815f5260405f208181548110612277575f80fd5b905f5260205f2090600a02015f9150915050805f015490806001015f9054906101000a900473ffffffffffffffffffffffffffffffffffffffff1690806002015f9054906101000a900473ffffffffffffffffffffffffffffffffffffffff1690806003015490806004015490806005015490806006015490806007015490806008018054612305906150e9565b80601f0160208091040260200160405190810160405280929190818152602001828054612331906150e9565b801561237c5780601f106123535761010080835404028352916020019161237c565b820191905f5260205f20905b81548152906001019060200180831161235f57829003601f168201915b505050505090806009015490508a565b6007602052815f5260405f2081815481106123a5575f80fd5b905f5260205f20015f915091509054906101000a900473ffffffffffffffffffffffffffffffffffffffff1681565b5f600d5f9054906101000a900473ffffffffffffffffffffffffffffffffffffffff1673ffffffffffffffffffffffffffffffffffffffff166370a08231336040518263ffffffff1660e01b815260040161242f9190614e0a565b602060405180830381865afa15801561244a573d5f5f3e3d5ffd5b505050506040513d601f19601f8201168201806040525081019061246e919061512d565b905090565b6009602052815f5260405f20818154811061248c575f80fd5b905f5260205f20015f915091509054906101000a900473ffffffffffffffffffffffffffffffffffffffff1681565b5f600b5f8381526020019081526020015f20905081815f015414612514576040517f08c379a000000000000000000000000000000000000000000000000000000000815260040161250b9061509e565b60405180910390fd5b8060030154421161255a576040517f08c379a00000000000000000000000000000000000000000000000000000000081526004016125519061580e565b60405180910390fd5b5f8160040154146125a0576040517f08c379a000000000000000000000000000000000000000000000000000000000815260040161259790615876565b60405180910390fd5b8060090154816008015411156127c657600181600401819055505f60045f836001015f9054906101000a900473ffffffffffffffffffffffffffffffffffffffff1673ffffffffffffffffffffffffffffffffffffffff1673ffffffffffffffffffffffffffffffffffffffff1681526020019081526020015f209050600d5f9054906101000a900473ffffffffffffffffffffffffffffffffffffffff1673ffffffffffffffffffffffffffffffffffffffff166340c10f19836001015f9054906101000a900473ffffffffffffffffffffffffffffffffffffffff1684600201546040518363ffffffff1660e01b81526004016126a092919061543d565b5f604051808303815f87803b1580156126b7575f5ffd5b505af11580156126c9573d5f5f3e3d5ffd5b505050508160020154816008015f8282546126e49190615021565b925050819055505f5f90505b60085f8581526020019081526020015f20805490508110156127bf575f60045f60085f8881526020019081526020015f20848154811061273357612732615158565b5b905f5260205f20015f9054906101000a900473ffffffffffffffffffffffffffffffffffffffff1673ffffffffffffffffffffffffffffffffffffffff1673ffffffffffffffffffffffffffffffffffffffff1681526020019081526020015f209050600581600a015f8282546127aa9190615021565b925050819055505080806001019150506126f0565b50506128a6565b5f5f90505b60095f8481526020019081526020015f208054905081101561289a575f60045f60095f8781526020019081526020015f20848154811061280e5761280d615158565b5b905f5260205f20015f9054906101000a900473ffffffffffffffffffffffffffffffffffffffff1673ffffffffffffffffffffffffffffffffffffffff1673ffffffffffffffffffffffffffffffffffffffff1681526020019081526020015f209050600581600a015f8282546128859190615021565b925050819055505080806001019150506127cb565b50600281600401819055505b5050565b5f600b5f8481526020019081526020015f20905082815f015414612903576040517f08c379a00000000000000000000000000000000000000000000000000000000081526004016128fa9061509e565b60405180910390fd5b80600301544210612949576040517f08c379a0000000000000000000000000000000000000000000000000000000008152600401612940906158de565b60405180910390fd5b806001015f9054906101000a900473ffffffffffffffffffffffffffffffffffffffff1673ffffffffffffffffffffffffffffffffffffffff163373ffffffffffffffffffffffffffffffffffffffff16036129da576040517f08c379a00000000000000000000000000000000000000000000000000000000081526004016129d19061596c565b60405180910390fd5b5f816004015414612a20576040517f08c379a0000000000000000000000000000000000000000000000000000000008152600401612a1790615876565b60405180910390fd5b5f5f90505b60075f8581526020019081526020015f2080549050811015612b06573373ffffffffffffffffffffffffffffffffffffffff1660075f8681526020019081526020015f208281548110612a7b57612a7a615158565b5b905f5260205f20015f9054906101000a900473ffffffffffffffffffffffffffffffffffffffff1673ffffffffffffffffffffffffffffffffffffffff1603612af9576040517f08c379a0000000000000000000000000000000000000000000000000000000008152600401612af0906159d4565b60405180910390fd5b8080600101915050612a25565b5060075f8481526020019081526020015f2033908060018154018082558091505060019003905f5260205f20015f9091909190916101000a81548173ffffffffffffffffffffffffffffffffffffffff021916908373ffffffffffffffffffffffffffffffffffffffff1602179055508115612bf05760085f8481526020019081526020015f2033908060018154018082558091505060019003905f5260205f20015f9091909190916101000a81548173ffffffffffffffffffffffffffffffffffffffff021916908373ffffffffffffffffffffffffffffffffffffffff160217905550612c60565b60095f8481526020019081526020015f2033908060018154018082558091505060019003905f5260205f20015f9091909190916101000a81548173ffffffffffffffffffffffffffffffffffffffff021916908373ffffffffffffffffffffffffffffffffffffffff1602179055505b8115612c8457806008015f815480929190612c7a90615185565b9190505550612c9e565b806009015f815480929190612c9890615185565b91905055505b80600a015f815480929190612cb290615185565b9190505550505050565b60035f9054906101000a900473ffffffffffffffffffffffffffffffffffffffff1681565b600a602052805f5260405f205f91509050805f015490806001015f9054906101000a900473ffffffffffffffffffffffffffffffffffffffff1690806002015f9054906101000a900473ffffffffffffffffffffffffffffffffffffffff1690806003015490806004015490806005015490806006015490806007015490806008018054612d6e906150e9565b80601f0160208091040260200160405190810160405280929190818152602001828054612d9a906150e9565b8015612de55780601f10612dbc57610100808354040283529160200191612de5565b820191905f5260205f20905b815481529060010190602001808311612dc857829003601f168201915b505050505090806009015490508a565b612dfd613b6b565b60045f3373ffffffffffffffffffffffffffffffffffffffff1673ffffffffffffffffffffffffffffffffffffffff1681526020019081526020015f20604051806101600160405290815f82018054612e55906150e9565b80601f0160208091040260200160405190810160405280929190818152602001828054612e81906150e9565b8015612ecc5780601f10612ea357610100808354040283529160200191612ecc565b820191905f5260205f20905b815481529060010190602001808311612eaf57829003601f168201915b50505050508152602001600182018054612ee5906150e9565b80601f0160208091040260200160405190810160405280929190818152602001828054612f11906150e9565b8015612f5c5780601f10612f3357610100808354040283529160200191612f5c565b820191905f5260205f20905b815481529060010190602001808311612f3f57829003601f168201915b50505050508152602001600282018054612f75906150e9565b80601f0160208091040260200160405190810160405280929190818152602001828054612fa1906150e9565b8015612fec5780601f10612fc357610100808354040283529160200191612fec565b820191905f5260205f20905b815481529060010190602001808311612fcf57829003601f168201915b50505050508152602001600382015f9054906101000a900473ffffffffffffffffffffffffffffffffffffffff1673ffffffffffffffffffffffffffffffffffffffff1673ffffffffffffffffffffffffffffffffffffffff168152602001600482015481526020016005820154815260200160068201548152602001600782015481526020016008820154815260200160098201548152602001600a82015481525050905090565b6004602052805f5260405f205f91509050805f0180546130b4906150e9565b80601f01602080910402602001604051908101604052809291908181526020018280546130e0906150e9565b801561312b5780601f106131025761010080835404028352916020019161312b565b820191905f5260205f20905b81548152906001019060200180831161310e57829003601f168201915b505050505090806001018054613140906150e9565b80601f016020809104026020016040519081016040528092919081815260200182805461316c906150e9565b80156131b75780601f1061318e576101008083540402835291602001916131b7565b820191905f5260205f20905b81548152906001019060200180831161319a57829003601f168201915b5050505050908060020180546131cc906150e9565b80601f01602080910402602001604051908101604052809291908181526020018280546131f8906150e9565b80156132435780601f1061321a57610100808354040283529160200191613243565b820191905f5260205f20905b81548152906001019060200180831161322657829003601f168201915b505050505090806003015f9054906101000a900473ffffffffffffffffffffffffffffffffffffffff169080600401549080600501549080600601549080600701549080600801549080600901549080600a015490508b565b5f600a5f8481526020019081526020015f20905082815f0154146132f5576040517f08c379a00000000000000000000000000000000000000000000000000000000081526004016132ec90615216565b60405180910390fd5b806002015f9054906101000a900473ffffffffffffffffffffffffffffffffffffffff1673ffffffffffffffffffffffffffffffffffffffff163373ffffffffffffffffffffffffffffffffffffffff1614613386576040517f08c379a000000000000000000000000000000000000000000000000000000000815260040161337d90615a3c565b60405180910390fd5b5f8160040154146133cc576040517f08c379a00000000000000000000000000000000000000000000000000000000081526004016133c390615aa4565b60405180910390fd5b60018214806133db5750600282145b61341a576040517f08c379a000000000000000000000000000000000000000000000000000000000815260040161341190615b0c565b60405180910390fd5b818160040181905550600182036136c2575f60045f836001015f9054906101000a900473ffffffffffffffffffffffffffffffffffffffff1673ffffffffffffffffffffffffffffffffffffffff1673ffffffffffffffffffffffffffffffffffffffff1681526020019081526020015f2090508160030154816007015f8282546134a59190615021565b92505081905550806004015f8154809291906134c090615185565b91905055505f60045f846002015f9054906101000a900473ffffffffffffffffffffffffffffffffffffffff1673ffffffffffffffffffffffffffffffffffffffff1673ffffffffffffffffffffffffffffffffffffffff1681526020019081526020015f2090508260030154816006015f82825461353f9190615021565b92505081905550806005015f81548092919061355a90615185565b9190505550600d5f9054906101000a900473ffffffffffffffffffffffffffffffffffffffff1673ffffffffffffffffffffffffffffffffffffffff166340c10f19846001015f9054906101000a900473ffffffffffffffffffffffffffffffffffffffff1685600301546040518363ffffffff1660e01b81526004016135e292919061543d565b5f604051808303815f87803b1580156135f9575f5ffd5b505af115801561360b573d5f5f3e3d5ffd5b50505050600d5f9054906101000a900473ffffffffffffffffffffffffffffffffffffffff1673ffffffffffffffffffffffffffffffffffffffff16639dc29fac846002015f9054906101000a900473ffffffffffffffffffffffffffffffffffffffff1685600301546040518363ffffffff1660e01b815260040161369292919061543d565b5f604051808303815f87803b1580156136a9575f5ffd5b505af11580156136bb573d5f5f3e3d5ffd5b5050505050505b505050565b6136cf613b6b565b60045f8373ffffffffffffffffffffffffffffffffffffffff1673ffffffffffffffffffffffffffffffffffffffff1681526020019081526020015f20604051806101600160405290815f82018054613727906150e9565b80601f0160208091040260200160405190810160405280929190818152602001828054613753906150e9565b801561379e5780601f106137755761010080835404028352916020019161379e565b820191905f5260205f20905b81548152906001019060200180831161378157829003601f168201915b505050505081526020016001820180546137b7906150e9565b80601f01602080910402602001604051908101604052809291908181526020018280546137e3906150e9565b801561382e5780601f106138055761010080835404028352916020019161382e565b820191905f5260205f20905b81548152906001019060200180831161381157829003601f168201915b50505050508152602001600282018054613847906150e9565b80601f0160208091040260200160405190810160405280929190818152602001828054613873906150e9565b80156138be5780601f10613895576101008083540402835291602001916138be565b820191905f5260205f20905b8154815290600101906020018083116138a157829003601f168201915b50505050508152602001600382015f9054906101000a900473ffffffffffffffffffffffffffffffffffffffff1673ffffffffffffffffffffffffffffffffffffffff1673ffffffffffffffffffffffffffffffffffffffff168152602001600482015481526020016005820154815260200160068201548152602001600782015481526020016008820154815260200160098201548152602001600a820154815250509050919050565b6008602052815f5260405f208181548110613982575f80fd5b905f5260205f20015f915091509054906101000a900473ffffffffffffffffffffffffffffffffffffffff1681565b6040518061018001604052805f81526020015f73ffffffffffffffffffffffffffffffffffffffff1681526020015f81526020015f81526020015f8152602001606081526020015f81526020015f8152602001606081526020015f81526020015f81526020015f81525090565b60405180608001604052806060815260200160608152602001606081526020015f81525090565b828054828255905f5260205f20908101928215613a8b579160200282015b82811115613a8a578251829081613a7a91906155fb565b5091602001919060010190613a63565b5b509050613a989190613bd3565b5090565b828054828255905f5260205f20908101928215613ae4575f5260205f209182015b82811115613ae35782829081613ad391906156df565b5091600101919060010190613abd565b5b509050613af19190613bd3565b5090565b6040518061014001604052805f81526020015f73ffffffffffffffffffffffffffffffffffffffff1681526020015f73ffffffffffffffffffffffffffffffffffffffff1681526020015f81526020015f81526020015f81526020015f81526020015f8152602001606081526020015f81525090565b6040518061016001604052806060815260200160608152602001606081526020015f73ffffffffffffffffffffffffffffffffffffffff1681526020015f81526020015f81526020015f81526020015f81526020015f81526020015f81526020015f81525090565b5b80821115613bf2575f8181613be99190613bf6565b50600101613bd4565b5090565b508054613c02906150e9565b5f825580601f10613c135750613c30565b601f0160209004905f5260205f2090810190613c2f9190613c33565b5b50565b5b80821115613c4a575f815f905550600101613c34565b5090565b5f604051905090565b5f5ffd5b5f5ffd5b5f819050919050565b613c7181613c5f565b8114613c7b575f5ffd5b50565b5f81359050613c8c81613c68565b92915050565b5f60208284031215613ca757613ca6613c57565b5b5f613cb484828501613c7e565b91505092915050565b613cc681613c5f565b82525050565b5f73ffffffffffffffffffffffffffffffffffffffff82169050919050565b5f613cf582613ccc565b9050919050565b613d0581613ceb565b82525050565b5f81519050919050565b5f82825260208201905092915050565b8281835e5f83830152505050565b5f601f19601f8301169050919050565b5f613d4d82613d0b565b613d578185613d15565b9350613d67818560208601613d25565b613d7081613d33565b840191505092915050565b5f81519050919050565b5f82825260208201905092915050565b5f819050602082019050919050565b5f613daf8383613d43565b905092915050565b5f602082019050919050565b5f613dcd82613d7b565b613dd78185613d85565b935083602082028501613de985613d95565b805f5b85811015613e245784840389528151613e058582613da4565b9450613e1083613db7565b925060208a01995050600181019050613dec565b50829750879550505050505092915050565b5f61018083015f830151613e4c5f860182613cbd565b506020830151613e5f6020860182613cfc565b506040830151613e726040860182613cbd565b506060830151613e856060860182613cbd565b506080830151613e986080860182613cbd565b5060a083015184820360a0860152613eb08282613d43565b91505060c0830151613ec560c0860182613cbd565b5060e0830151613ed860e0860182613cbd565b50610100830151848203610100860152613ef28282613dc3565b915050610120830151613f09610120860182613cbd565b50610140830151613f1e610140860182613cbd565b50610160830151613f33610160860182613cbd565b508091505092915050565b5f6020820190508181035f830152613f568184613e36565b905092915050565b5f81519050919050565b5f82825260208201905092915050565b5f819050602082019050919050565b5f608083015f8301518482035f860152613fa18282613d43565b91505060208301518482036020860152613fbb8282613d43565b91505060408301518482036040860152613fd58282613d43565b9150506060830151613fea6060860182613cbd565b508091505092915050565b5f6140008383613f87565b905092915050565b5f602082019050919050565b5f61401e82613f5e565b6140288185613f68565b93508360208202850161403a85613f78565b805f5b8581101561407557848403895281516140568582613ff5565b945061406183614008565b925060208a0199505060018101905061403d565b50829750879550505050505092915050565b5f6020820190508181035f83015261409f8184614014565b905092915050565b5f81519050919050565b5f82825260208201905092915050565b5f819050602082019050919050565b5f61018083015f8301516140e65f860182613cbd565b5060208301516140f96020860182613cfc565b50604083015161410c6040860182613cbd565b50606083015161411f6060860182613cbd565b5060808301516141326080860182613cbd565b5060a083015184820360a086015261414a8282613d43565b91505060c083015161415f60c0860182613cbd565b5060e083015161417260e0860182613cbd565b50610100830151614187610100860182613cbd565b5061012083015161419c610120860182613cbd565b506101408301516141b1610140860182613cbd565b506101608301518482036101608601526141cb8282613dc3565b9150508091505092915050565b5f6141e383836140d0565b905092915050565b5f602082019050919050565b5f614201826140a7565b61420b81856140b1565b93508360208202850161421d856140c1565b805f5b85811015614258578484038952815161423985826141d8565b9450614244836141eb565b925060208a01995050600181019050614220565b50829750879550505050505092915050565b5f6020820190508181035f83015261428281846141f7565b905092915050565b5f82825260208201905092915050565b5f6142a482613d0b565b6142ae818561428a565b93506142be818560208601613d25565b6142c781613d33565b840191505092915050565b6142db81613ceb565b82525050565b6142ea81613c5f565b82525050565b5f610160820190508181035f830152614309818e61429a565b9050818103602083015261431d818d61429a565b90508181036040830152614331818c61429a565b9050614340606083018b6142d2565b61434d608083018a6142e1565b61435a60a08301896142e1565b61436760c08301886142e1565b61437460e08301876142e1565b6143826101008301866142e1565b6143906101208301856142e1565b61439e6101408301846142e1565b9c9b505050505050505050505050565b5f81519050919050565b5f82825260208201905092915050565b5f819050602082019050919050565b5f61014083015f8301516143ed5f860182613cbd565b5060208301516144006020860182613cfc565b5060408301516144136040860182613cfc565b5060608301516144266060860182613cbd565b5060808301516144396080860182613cbd565b5060a083015161444c60a0860182613cbd565b5060c083015161445f60c0860182613cbd565b5060e083015161447260e0860182613cbd565b5061010083015184820361010086015261448c8282613d43565b9150506101208301516144a3610120860182613cbd565b508091505092915050565b5f6144b983836143d7565b905092915050565b5f602082019050919050565b5f6144d7826143ae565b6144e181856143b8565b9350836020820285016144f3856143c8565b805f5b8581101561452e578484038952815161450f85826144ae565b945061451a836144c1565b925060208a019950506001810190506144f6565b50829750879550505050505092915050565b5f6020820190508181035f83015261455881846144cd565b905092915050565b61456981613ceb565b8114614573575f5ffd5b50565b5f8135905061458481614560565b92915050565b5f5f604083850312156145a05761459f613c57565b5b5f6145ad85828601614576565b92505060206145be85828601613c7e565b9150509250929050565b5f610160820190506145dc5f83018e6142e1565b6145e9602083018d6142d2565b6145f6604083018c6142e1565b614603606083018b6142e1565b614610608083018a6142e1565b81810360a0830152614622818961429a565b905061463160c08301886142e1565b61463e60e08301876142e1565b61464c6101008301866142e1565b61465a6101208301856142e1565b6146686101408301846142e1565b9c9b505050505050505050505050565b5f5ffd5b5f5ffd5b7f4e487b71000000000000000000000000000000000000000000000000000000005f52604160045260245ffd5b6146b682613d33565b810181811067ffffffffffffffff821117156146d5576146d4614680565b5b80604052505050565b5f6146e7613c4e565b90506146f382826146ad565b919050565b5f67ffffffffffffffff82111561471257614711614680565b5b61471b82613d33565b9050602081019050919050565b828183375f83830152505050565b5f614748614743846146f8565b6146de565b9050828152602081018484840111156147645761476361467c565b5b61476f848285614728565b509392505050565b5f82601f83011261478b5761478a614678565b5b813561479b848260208601614736565b91505092915050565b5f67ffffffffffffffff8211156147be576147bd614680565b5b602082029050602081019050919050565b5f5ffd5b5f6147e56147e0846147a4565b6146de565b90508083825260208201905060208402830185811115614808576148076147cf565b5b835b8181101561484f57803567ffffffffffffffff81111561482d5761482c614678565b5b80860161483a8982614777565b8552602085019450505060208101905061480a565b5050509392505050565b5f82601f83011261486d5761486c614678565b5b813561487d8482602086016147d3565b91505092915050565b5f5f5f5f5f5f60c087890312156148a05761489f613c57565b5b5f6148ad89828a01613c7e565b96505060206148be89828a01613c7e565b955050604087013567ffffffffffffffff8111156148df576148de613c5b565b5b6148eb89828a01614777565b94505060606148fc89828a01613c7e565b935050608061490d89828a01613c7e565b92505060a087013567ffffffffffffffff81111561492e5761492d613c5b565b5b61493a89828a01614859565b9150509295509295509295565b5f5f5f5f5f5f5f5f5f5f5f6101608c8e03121561496757614966613c57565b5b5f8c013567ffffffffffffffff81111561498457614983613c5b565b5b6149908e828f01614777565b9b505060208c013567ffffffffffffffff8111156149b1576149b0613c5b565b5b6149bd8e828f01614777565b9a505060408c013567ffffffffffffffff8111156149de576149dd613c5b565b5b6149ea8e828f01614777565b99505060606149fb8e828f01614576565b9850506080614a0c8e828f01613c7e565b97505060a0614a1d8e828f01613c7e565b96505060c0614a2e8e828f01613c7e565b95505060e0614a3f8e828f01613c7e565b945050610100614a518e828f01613c7e565b935050610120614a638e828f01613c7e565b925050610140614a758e828f01613c7e565b9150509295989b509295989b9093969950565b5f5f5f5f60808587031215614aa057614a9f613c57565b5b5f614aad87828801614576565b9450506020614abe87828801613c7e565b9350506040614acf87828801613c7e565b925050606085013567ffffffffffffffff811115614af057614aef613c5b565b5b614afc87828801614777565b91505092959194509250565b5f819050919050565b5f614b2b614b26614b2184613ccc565b614b08565b613ccc565b9050919050565b5f614b3c82614b11565b9050919050565b5f614b4d82614b32565b9050919050565b614b5d81614b43565b82525050565b5f602082019050614b765f830184614b54565b92915050565b5f5f5f5f60808587031215614b9457614b93613c57565b5b5f85013567ffffffffffffffff811115614bb157614bb0613c5b565b5b614bbd87828801614777565b945050602085013567ffffffffffffffff811115614bde57614bdd613c5b565b5b614bea87828801614777565b935050604085013567ffffffffffffffff811115614c0b57614c0a613c5b565b5b614c1787828801614777565b9250506060614c2887828801613c7e565b91505092959194509250565b5f61014083015f830151614c4a5f860182613cbd565b506020830151614c5d6020860182613cfc565b506040830151614c706040860182613cfc565b506060830151614c836060860182613cbd565b506080830151614c966080860182613cbd565b5060a0830151614ca960a0860182613cbd565b5060c0830151614cbc60c0860182613cbd565b5060e0830151614ccf60e0860182613cbd565b50610100830151848203610100860152614ce98282613d43565b915050610120830151614d00610120860182613cbd565b508091505092915050565b5f6020820190508181035f830152614d238184614c34565b905092915050565b5f61014082019050614d3f5f83018d6142e1565b614d4c602083018c6142d2565b614d59604083018b6142d2565b614d66606083018a6142e1565b614d7360808301896142e1565b614d8060a08301886142e1565b614d8d60c08301876142e1565b614d9a60e08301866142e1565b818103610100830152614dad818561429a565b9050614dbd6101208301846142e1565b9b9a5050505050505050505050565b5f5f60408385031215614de257614de1613c57565b5b5f614def85828601613c7e565b9250506020614e0085828601613c7e565b9150509250929050565b5f602082019050614e1d5f8301846142d2565b92915050565b5f602082019050614e365f8301846142e1565b92915050565b5f8115159050919050565b614e5081614e3c565b8114614e5a575f5ffd5b50565b5f81359050614e6b81614e47565b92915050565b5f5f60408385031215614e8757614e86613c57565b5b5f614e9485828601613c7e565b9250506020614ea585828601614e5d565b9150509250929050565b5f61016083015f8301518482035f860152614eca8282613d43565b91505060208301518482036020860152614ee48282613d43565b91505060408301518482036040860152614efe8282613d43565b9150506060830151614f136060860182613cfc565b506080830151614f266080860182613cbd565b5060a0830151614f3960a0860182613cbd565b5060c0830151614f4c60c0860182613cbd565b5060e0830151614f5f60e0860182613cbd565b50610100830151614f74610100860182613cbd565b50610120830151614f89610120860182613cbd565b50610140830151614f9e610140860182613cbd565b508091505092915050565b5f6020820190508181035f830152614fc18184614eaf565b905092915050565b5f60208284031215614fde57614fdd613c57565b5b5f614feb84828501614576565b91505092915050565b7f4e487b71000000000000000000000000000000000000000000000000000000005f52601160045260245ffd5b5f61502b82613c5f565b915061503683613c5f565b925082820190508082111561504e5761504d614ff4565b5b92915050565b7f436c61696d206e6f7420666f756e6400000000000000000000000000000000005f82015250565b5f615088600f8361428a565b915061509382615054565b602082019050919050565b5f6020820190508181035f8301526150b58161507c565b9050919050565b7f4e487b71000000000000000000000000000000000000000000000000000000005f52602260045260245ffd5b5f600282049050600182168061510057607f821691505b602082108103615113576151126150bc565b5b50919050565b5f8151905061512781613c68565b92915050565b5f6020828403121561514257615141613c57565b5b5f61514f84828501615119565b91505092915050565b7f4e487b71000000000000000000000000000000000000000000000000000000005f52603260045260245ffd5b5f61518f82613c5f565b91507fffffffffffffffffffffffffffffffffffffffffffffffffffffffffffffffff82036151c1576151c0614ff4565b5b600182019050919050565b7f52657175657374206e6f7420666f756e640000000000000000000000000000005f82015250565b5f61520060118361428a565b915061520b826151cc565b602082019050919050565b5f6020820190508181035f83015261522d816151f4565b9050919050565b7f4f6e6c7920626f72726f7765722063616e207061796261636b000000000000005f82015250565b5f61526860198361428a565b915061527382615234565b602082019050919050565b5f6020820190508181035f8301526152958161525c565b9050919050565b7f52657175657374206e6f742061636365707465640000000000000000000000005f82015250565b5f6152d060148361428a565b91506152db8261529c565b602082019050919050565b5f6020820190508181035f8301526152fd816152c4565b9050919050565b7f416d6f756e74206578636565647320626f72726f7765642063726564697473005f82015250565b5f615338601f8361428a565b915061534382615304565b602082019050919050565b5f6020820190508181035f8301526153658161532c565b9050919050565b5f61537682613c5f565b915061538183613c5f565b925082820390508181111561539957615398614ff4565b5b92915050565b5f6153a982613c5f565b91506153b483613c5f565b92508282026153c281613c5f565b915082820484148315176153d9576153d8614ff4565b5b5092915050565b7f4e487b71000000000000000000000000000000000000000000000000000000005f52601260045260245ffd5b5f61541782613c5f565b915061542283613c5f565b925082615432576154316153e0565b5b828204905092915050565b5f6040820190506154505f8301856142d2565b61545d60208301846142e1565b9392505050565b5f819050815f5260205f209050919050565b5f6020601f8301049050919050565b5f82821b905092915050565b5f600883026154c07fffffffffffffffffffffffffffffffffffffffffffffffffffffffffffffffff82615485565b6154ca8683615485565b95508019841693508086168417925050509392505050565b5f6154fc6154f76154f284613c5f565b614b08565b613c5f565b9050919050565b5f819050919050565b615515836154e2565b61552961552182615503565b848454615491565b825550505050565b5f5f905090565b615540615531565b61554b81848461550c565b505050565b5b8181101561556e576155635f82615538565b600181019050615551565b5050565b601f8211156155b35761558481615464565b61558d84615476565b8101602085101561559c578190505b6155b06155a885615476565b830182615550565b50505b505050565b5f82821c905092915050565b5f6155d35f19846008026155b8565b1980831691505092915050565b5f6155eb83836155c4565b9150826002028217905092915050565b61560482613d0b565b67ffffffffffffffff81111561561d5761561c614680565b5b61562782546150e9565b615632828285615572565b5f60209050601f831160018114615663575f8415615651578287015190505b61565b85826155e0565b8655506156c2565b601f19841661567186615464565b5f5b8281101561569857848901518255600182019150602085019450602081019050615673565b868310156156b557848901516156b1601f8916826155c4565b8355505b6001600288020188555050505b505050505050565b5f815490506156d8816150e9565b9050919050565b8181036156ed5750506157c2565b6156f6826156ca565b67ffffffffffffffff81111561570f5761570e614680565b5b61571982546150e9565b615724828285615572565b5f601f831160018114615751575f841561573f578287015490505b61574985826155e0565b8655506157bb565b601f19841661575f87615464565b965061576a86615464565b5f5b828110156157915784890154825560018201915060018501945060208101905061576c565b868310156157ae57848901546157aa601f8916826155c4565b8355505b6001600288020188555050505b5050505050505b565b7f566f74696e6720706572696f6420686173206e6f7420656e64656400000000005f82015250565b5f6157f8601b8361428a565b9150615803826157c4565b602082019050919050565b5f6020820190508181035f830152615825816157ec565b9050919050565b7f436c61696d206973206e6f742070656e64696e670000000000000000000000005f82015250565b5f61586060148361428a565b915061586b8261582c565b602082019050919050565b5f6020820190508181035f83015261588d81615854565b9050919050565b7f566f74696e6720706572696f642068617320656e6465640000000000000000005f82015250565b5f6158c860178361428a565b91506158d382615894565b602082019050919050565b5f6020820190508181035f8301526158f5816158bc565b9050919050565b7f4f7267616e69736174696f6e2063616e6e6f7420766f7465206f6e20697473205f8201527f6f776e20636c61696d0000000000000000000000000000000000000000000000602082015250565b5f61595660298361428a565b9150615961826158fc565b604082019050919050565b5f6020820190508181035f8301526159838161594a565b9050919050565b7f596f75206861766520616c726561647920766f746564000000000000000000005f82015250565b5f6159be60168361428a565b91506159c98261598a565b602082019050919050565b5f6020820190508181035f8301526159eb816159b2565b9050919050565b7f4f6e6c79206c656e6465722063616e20726573706f6e640000000000000000005f82015250565b5f615a2660178361428a565b9150615a31826159f2565b602082019050919050565b5f6020820190508181035f830152615a5381615a1a565b9050919050565b7f5265717565737420616c726561647920726573706f6e646564000000000000005f82015250565b5f615a8e60198361428a565b9150615a9982615a5a565b602082019050919050565b5f6020820190508181035f830152615abb81615a82565b9050919050565b7f496e76616c696420726573706f6e7365000000000000000000000000000000005f82015250565b5f615af660108361428a565b9150615b0182615ac2565b602082019050919050565b5f6020820190508181035f830152615b2381615aea565b905091905056fea264697066735822122034b0197b2d0956bdf083b191c5cefc321be096af010ee74e61c51d07b189689364736f6c634300081c0033","linkReferences":{}},"methodIdentifiers":{"addressToClaims(address,uint256)":"30d4a63a","addressToLendRequests(address,uint256)":"97d4e30c","addressToOrganisation(address)":"e6767a4b","carbonToken()":"82a71ef2","carbonTokenAddress()":"cd8692b0","claimIdToClaim(uint256)":"437b7837","claimIdToVoters(uint256,uint256)":"99758ef2","claimIdToVotersNo(uint256,uint256)":"9d8eb84e","claimIdToVotersYes(uint256,uint256)":"fbd1b396","createClaim(uint256,uint256,string,uint256,uint256,string[])":"66f59cf7","createLendRequest(address,uint256,uint256,string)":"7dc82871","createOrganisation(string,string,string,address,uint256,uint256,uint256,uint256,uint256,uint256,uint256)":"67aa46b5","getAllOrganisationDetails()":"20e0df2d","getBalanceOfOrganisation()":"9ae57ee3","getClaimDetailsPublic(uint256)":"115dbad6","getLendRequestDetails(address,uint256)":"96b946d8","getMyOrganisationDetails()":"e4169866","getOrganisationDetails(address)":"f9faec00","getUserClaims()":"216e14fb","getUserLendRequests()":"2b2a2a14","handleVotingResult(uint256)":"c6fee314","lendrequestIdToLendRequest(uint256)":"d54f3a41","organisationIDToOrganisation(uint256)":"23d4b980","paybackLendRequest(uint256)":"625d4201","recordOrganisationEmissions(uint256)":"00c59439","respondToLendRequest(uint256,uint256)":"efd441d5","updateOrganisationDetails(string,string,string,uint256)":"8ab7e6b5","vote(uint256,bool)":"c9d27afe"},"id":22}