{"abi":[{"type":"constructor","inputs":[{"name":"_carbonTokenAddress","type":"address","internalType":"address"},{"name":"_verifierProofAddress","type":"address","internalType":"address"}],"stateMutability":"nonpayable"},{"type":"function","name":"addressToClaims","inputs":[{"name":"","type":"address","internalType":"address"},{"name":"","type":"uint256","internalType":"uint256"}],"outputs":[{"name":"id","type":"uint256","internalType":"uint256"},{"name":"organisationAddress","type":"address","internalType":"address"},{"name":"demandedCarbonCredits","type":"uint256","internalType":"uint256"},{"name":"voting_end_time","type":"uint256","internalType":"uint256"},{"name":"status","type":"uint256","internalType":"uint256"},{"name":"description","type":"string","internalType":"string"},{"name":"latitudes","type":"uint256","internalType":"uint256"},{"name":"longitudes","type":"uint256","internalType":"uint256"},{"name":"yes_votes","type":"uint256","internalType":"uint256"},{"name":"no_votes","type":"uint256","internalType":"uint256"},{"name":"total_votes","type":"uint256","internalType":"uint256"}],"stateMutability":"view"},{"type":"function","name":"addressToLendRequests","inputs":[{"name":"","type":"address","internalType":"address"},{"name":"","type":"uint256","internalType":"uint256"}],"outputs":[{"name":"id","type":"uint256","internalType":"uint256"},{"name":"borrowerAddress","type":"address","internalType":"address"},{"name":"lenderAddress","type":"address","internalType":"address"},{"name":"carbonCredits","type":"uint256","internalType":"uint256"},{"name":"response","type":"uint256","internalType":"uint256"},{"name":"interestRate","type":"uint256","internalType":"uint256"},{"name":"timeOfissue","type":"uint256","internalType":"uint256"},{"name":"eligibilityScore","type":"uint256","internalType":"uint256"},{"name":"proofData","type":"bytes","internalType":"bytes"},{"name":"status","type":"uint256","internalType":"uint256"},{"name":"recommendation","type":"uint256","internalType":"uint256"}],"stateMutability":"view"},{"type":"function","name":"addressToOrganisation","inputs":[{"name":"","type":"address","internalType":"address"}],"outputs":[{"name":"name","type":"string","internalType":"string"},{"name":"description","type":"string","internalType":"string"},{"name":"profilePhotoipfsHashCode","type":"string","internalType":"string"},{"name":"walletAddress","type":"address","internalType":"address"},{"name":"timesBorrowed","type":"uint256","internalType":"uint256"},{"name":"timesLent","type":"uint256","internalType":"uint256"},{"name":"totalCarbonCreditsLent","type":"uint256","internalType":"uint256"},{"name":"totalCarbonCreditsBorrowed","type":"uint256","internalType":"uint256"},{"name":"totalCarbonCreditsReturned","type":"uint256","internalType":"uint256"},{"name":"emissions","type":"uint256","internalType":"uint256"},{"name":"reputationScore","type":"uint256","internalType":"uint256"}],"stateMutability":"view"},{"type":"function","name":"carbonToken","inputs":[],"outputs":[{"name":"","type":"address","internalType":"contract CarbonCredit"}],"stateMutability":"view"},{"type":"function","name":"carbonTokenAddress","inputs":[],"outputs":[{"name":"","type":"address","internalType":"address"}],"stateMutability":"view"},{"type":"function","name":"claimIdToClaim","inputs":[{"name":"","type":"uint256","internalType":"uint256"}],"outputs":[{"name":"id","type":"uint256","internalType":"uint256"},{"name":"organisationAddress","type":"address","internalType":"address"},{"name":"demandedCarbonCredits","type":"uint256","internalType":"uint256"},{"name":"voting_end_time","type":"uint256","internalType":"uint256"},{"name":"status","type":"uint256","internalType":"uint256"},{"name":"description","type":"string","internalType":"string"},{"name":"latitudes","type":"uint256","internalType":"uint256"},{"name":"longitudes","type":"uint256","internalType":"uint256"},{"name":"yes_votes","type":"uint256","internalType":"uint256"},{"name":"no_votes","type":"uint256","internalType":"uint256"},{"name":"total_votes","type":"uint256","internalType":"uint256"}],"stateMutability":"view"},{"type":"function","name":"claimIdToVoters","inputs":[{"name":"","type":"uint256","internalType":"uint256"},{"name":"","type":"uint256","internalType":"uint256"}],"outputs":[{"name":"","type":"address","internalType":"address"}],"stateMutability":"view"},{"type":"function","name":"claimIdToVotersNo","inputs":[{"name":"","type":"uint256","internalType":"uint256"},{"name":"","type":"uint256","internalType":"uint256"}],"outputs":[{"name":"","type":"address","internalType":"address"}],"stateMutability":"view"},{"type":"function","name":"claimIdToVotersYes","inputs":[{"name":"","type":"uint256","internalType":"uint256"},{"name":"","type":"uint256","internalType":"uint256"}],"outputs":[{"name":"","type":"address","internalType":"address"}],"stateMutability":"view"},{"type":"function","name":"createClaim","inputs":[{"name":"_demandedCarbonCredits","type":"uint256","internalType":"uint256"},{"name":"_voting_end_time","type":"uint256","internalType":"uint256"},{"name":"_description","type":"string","internalType":"string"},{"name":"_latitudes","type":"uint256","internalType":"uint256"},{"name":"_longitudes","type":"uint256","internalType":"uint256"},{"name":"_proofIpfsHashCode","type":"string[]","internalType":"string[]"}],"outputs":[],"stateMutability":"nonpayable"},{"type":"function","name":"createLendRequest","inputs":[{"name":"_lenderAddress","type":"address","internalType":"address"},{"name":"_carbonCredits","type":"uint256","internalType":"uint256"},{"name":"_interestRate","type":"uint256","internalType":"uint256"},{"name":"a","type":"uint256[2]","internalType":"uint256[2]"},{"name":"b","type":"uint256[2][2]","internalType":"uint256[2][2]"},{"name":"c","type":"uint256[2]","internalType":"uint256[2]"},{"name":"input","type":"uint256[]","internalType":"uint256[]"}],"outputs":[],"stateMutability":"nonpayable"},{"type":"function","name":"createOrganisation","inputs":[{"name":"_name","type":"string","internalType":"string"},{"name":"_description","type":"string","internalType":"string"},{"name":"_profilePhotoipfsHashCode","type":"string","internalType":"string"},{"name":"_walletAddress","type":"address","internalType":"address"},{"name":"_timesBorrowed","type":"uint256","internalType":"uint256"},{"name":"_timesLent","type":"uint256","internalType":"uint256"},{"name":"_totalCarbonCreditsLent","type":"uint256","internalType":"uint256"},{"name":"_totalCarbonCreditsBorrowed","type":"uint256","internalType":"uint256"},{"name":"_totalCarbonCreditsReturned","type":"uint256","internalType":"uint256"},{"name":"_emissions","type":"uint256","internalType":"uint256"},{"name":"_reputationScore","type":"uint256","internalType":"uint256"}],"outputs":[],"stateMutability":"nonpayable"},{"type":"function","name":"getAllOrganisationDetails","inputs":[],"outputs":[{"name":"","type":"tuple[]","internalType":"struct OrganisationPublicView[]","components":[{"name":"name","type":"string","internalType":"string"},{"name":"description","type":"string","internalType":"string"},{"name":"profilePhotoipfsHashCode","type":"string","internalType":"string"},{"name":"totalCarbonCredits","type":"uint256","internalType":"uint256"}]}],"stateMutability":"view"},{"type":"function","name":"getBalanceOfOrganisation","inputs":[],"outputs":[{"name":"","type":"uint256","internalType":"uint256"}],"stateMutability":"view"},{"type":"function","name":"getClaimDetailsPublic","inputs":[{"name":"_claimId","type":"uint256","internalType":"uint256"}],"outputs":[{"name":"","type":"tuple","internalType":"struct ClaimPublicView","components":[{"name":"id","type":"uint256","internalType":"uint256"},{"name":"organisationAddress","type":"address","internalType":"address"},{"name":"demandedCarbonCredits","type":"uint256","internalType":"uint256"},{"name":"voting_end_time","type":"uint256","internalType":"uint256"},{"name":"status","type":"uint256","internalType":"uint256"},{"name":"description","type":"string","internalType":"string"},{"name":"latitudes","type":"uint256","internalType":"uint256"},{"name":"longitudes","type":"uint256","internalType":"uint256"},{"name":"proofIpfsHashCode","type":"string[]","internalType":"string[]"},{"name":"yes_votes","type":"uint256","internalType":"uint256"},{"name":"no_votes","type":"uint256","internalType":"uint256"},{"name":"total_votes","type":"uint256","internalType":"uint256"}]}],"stateMutability":"view"},{"type":"function","name":"getClaimsByStatus","inputs":[{"name":"_status","type":"uint256","internalType":"uint256"}],"outputs":[{"name":"","type":"tuple[]","internalType":"struct ClaimPublicView[]","components":[{"name":"id","type":"uint256","internalType":"uint256"},{"name":"organisationAddress","type":"address","internalType":"address"},{"name":"demandedCarbonCredits","type":"uint256","internalType":"uint256"},{"name":"voting_end_time","type":"uint256","internalType":"uint256"},{"name":"status","type":"uint256","internalType":"uint256"},{"name":"description","type":"string","internalType":"string"},{"name":"latitudes","type":"uint256","internalType":"uint256"},{"name":"longitudes","type":"uint256","internalType":"uint256"},{"name":"proofIpfsHashCode","type":"string[]","internalType":"string[]"},{"name":"yes_votes","type":"uint256","internalType":"uint256"},{"name":"no_votes","type":"uint256","internalType":"uint256"},{"name":"total_votes","type":"uint256","internalType":"uint256"}]}],"stateMutability":"view"},{"type":"function","name":"getLendRequestDetails","inputs":[{"name":"_borrowerAddress","type":"address","internalType":"address"},{"name":"_requestId","type":"uint256","internalType":"uint256"}],"outputs":[{"name":"","type":"tuple","internalType":"struct LendRequest","components":[{"name":"id","type":"uint256","internalType":"uint256"},{"name":"borrowerAddress","type":"address","internalType":"address"},{"name":"lenderAddress","type":"address","internalType":"address"},{"name":"carbonCredits","type":"uint256","internalType":"uint256"},{"name":"response","type":"uint256","internalType":"uint256"},{"name":"interestRate","type":"uint256","internalType":"uint256"},{"name":"timeOfissue","type":"uint256","internalType":"uint256"},{"name":"eligibilityScore","type":"uint256","internalType":"uint256"},{"name":"proofData","type":"bytes","internalType":"bytes"},{"name":"status","type":"uint256","internalType":"uint256"},{"name":"recommendation","type":"uint256","internalType":"uint256"}]}],"stateMutability":"view"},{"type":"function","name":"getMyOrganisationDetails","inputs":[],"outputs":[{"name":"","type":"tuple","internalType":"struct Organisation","components":[{"name":"name","type":"string","internalType":"string"},{"name":"description","type":"string","internalType":"string"},{"name":"profilePhotoipfsHashCode","type":"string","internalType":"string"},{"name":"walletAddress","type":"address","internalType":"address"},{"name":"timesBorrowed","type":"uint256","internalType":"uint256"},{"name":"timesLent","type":"uint256","internalType":"uint256"},{"name":"totalCarbonCreditsLent","type":"uint256","internalType":"uint256"},{"name":"totalCarbonCreditsBorrowed","type":"uint256","internalType":"uint256"},{"name":"totalCarbonCreditsReturned","type":"uint256","internalType":"uint256"},{"name":"emissions","type":"uint256","internalType":"uint256"},{"name":"reputationScore","type":"uint256","internalType":"uint256"}]}],"stateMutability":"view"},{"type":"function","name":"getOrganisationDetails","inputs":[{"name":"_organisationAddress","type":"address","internalType":"address"}],"outputs":[{"name":"","type":"tuple","internalType":"struct Organisation","components":[{"name":"name","type":"string","internalType":"string"},{"name":"description","type":"string","internalType":"string"},{"name":"profilePhotoipfsHashCode","type":"string","internalType":"string"},{"name":"walletAddress","type":"address","internalType":"address"},{"name":"timesBorrowed","type":"uint256","internalType":"uint256"},{"name":"timesLent","type":"uint256","internalType":"uint256"},{"name":"totalCarbonCreditsLent","type":"uint256","internalType":"uint256"},{"name":"totalCarbonCreditsBorrowed","type":"uint256","internalType":"uint256"},{"name":"totalCarbonCreditsReturned","type":"uint256","internalType":"uint256"},{"name":"emissions","type":"uint256","internalType":"uint256"},{"name":"reputationScore","type":"uint256","internalType":"uint256"}]}],"stateMutability":"view"},{"type":"function","name":"getUserClaims","inputs":[],"outputs":[{"name":"","type":"tuple[]","internalType":"struct Claim[]","components":[{"name":"id","type":"uint256","internalType":"uint256"},{"name":"organisationAddress","type":"address","internalType":"address"},{"name":"demandedCarbonCredits","type":"uint256","internalType":"uint256"},{"name":"voting_end_time","type":"uint256","internalType":"uint256"},{"name":"status","type":"uint256","internalType":"uint256"},{"name":"description","type":"string","internalType":"string"},{"name":"latitudes","type":"uint256","internalType":"uint256"},{"name":"longitudes","type":"uint256","internalType":"uint256"},{"name":"yes_votes","type":"uint256","internalType":"uint256"},{"name":"no_votes","type":"uint256","internalType":"uint256"},{"name":"total_votes","type":"uint256","internalType":"uint256"},{"name":"proofIpfsHashCode","type":"string[]","internalType":"string[]"}]}],"stateMutability":"view"},{"type":"function","name":"getUserLendRequests","inputs":[],"outputs":[{"name":"","type":"tuple[]","internalType":"struct LendRequest[]","components":[{"name":"id","type":"uint256","internalType":"uint256"},{"name":"borrowerAddress","type":"address","internalType":"address"},{"name":"lenderAddress","type":"address","internalType":"address"},{"name":"carbonCredits","type":"uint256","internalType":"uint256"},{"name":"response","type":"uint256","internalType":"uint256"},{"name":"interestRate","type":"uint256","internalType":"uint256"},{"name":"timeOfissue","type":"uint256","internalType":"uint256"},{"name":"eligibilityScore","type":"uint256","internalType":"uint256"},{"name":"proofData","type":"bytes","internalType":"bytes"},{"name":"status","type":"uint256","internalType":"uint256"},{"name":"recommendation","type":"uint256","internalType":"uint256"}]}],"stateMutability":"view"},{"type":"function","name":"handleVotingResult","inputs":[{"name":"_claimId","type":"uint256","internalType":"uint256"}],"outputs":[],"stateMutability":"nonpayable"},{"type":"function","name":"lendrequestIdToLendRequest","inputs":[{"name":"","type":"uint256","internalType":"uint256"}],"outputs":[{"name":"id","type":"uint256","internalType":"uint256"},{"name":"borrowerAddress","type":"address","internalType":"address"},{"name":"lenderAddress","type":"address","internalType":"address"},{"name":"carbonCredits","type":"uint256","internalType":"uint256"},{"name":"response","type":"uint256","internalType":"uint256"},{"name":"interestRate","type":"uint256","internalType":"uint256"},{"name":"timeOfissue","type":"uint256","internalType":"uint256"},{"name":"eligibilityScore","type":"uint256","internalType":"uint256"},{"name":"proofData","type":"bytes","internalType":"bytes"},{"name":"status","type":"uint256","internalType":"uint256"},{"name":"recommendation","type":"uint256","internalType":"uint256"}],"stateMutability":"view"},{"type":"function","name":"organisationIDToOrganisation","inputs":[{"name":"","type":"uint256","internalType":"uint256"}],"outputs":[{"name":"name","type":"string","internalType":"string"},{"name":"description","type":"string","internalType":"string"},{"name":"profilePhotoipfsHashCode","type":"string","internalType":"string"},{"name":"walletAddress","type":"address","internalType":"address"},{"name":"timesBorrowed","type":"uint256","internalType":"uint256"},{"name":"timesLent","type":"uint256","internalType":"uint256"},{"name":"totalCarbonCreditsLent","type":"uint256","internalType":"uint256"},{"name":"totalCarbonCreditsBorrowed","type":"uint256","internalType":"uint256"},{"name":"totalCarbonCreditsReturned","type":"uint256","internalType":"uint256"},{"name":"emissions","type":"uint256","internalType":"uint256"},{"name":"reputationScore","type":"uint256","internalType":"uint256"}],"stateMutability":"view"},{"type":"function","name":"paybackLendRequest","inputs":[{"name":"_requestId","type":"uint256","internalType":"uint256"}],"outputs":[],"stateMutability":"nonpayable"},{"type":"function","name":"recordOrganisationEmissions","inputs":[{"name":"_emissions","type":"uint256","internalType":"uint256"}],"outputs":[],"stateMutability":"nonpayable"},{"type":"function","name":"respondToLendRequest","inputs":[{"name":"_requestId","type":"uint256","internalType":"uint256"},{"name":"_response","type":"uint256","internalType":"uint256"}],"outputs":[],"stateMutability":"nonpayable"},{"type":"function","name":"updateOrganisationDetails","inputs":[{"name":"_name","type":"string","internalType":"string"},{"name":"_description","type":"string","internalType":"string"},{"name":"_profilePhotoipfsHashCode","type":"string","internalType":"string"},{"name":"_totalCarbonCredits","type":"uint256","internalType":"uint256"}],"outputs":[],"stateMutability":"nonpayable"},{"type":"function","name":"verifier","inputs":[],"outputs":[{"name":"","type":"address","internalType":"contract IVerifier"}],"stateMutability":"view"},{"type":"function","name":"verifierProofAddress","inputs":[],"outputs":[{"name":"","type":"address","internalType":"address"}],"stateMutability":"view"},{"type":"function","name":"vote","inputs":[{"name":"_claimId","type":"uint256","internalType":"uint256"},{"name":"_vote","type":"bool","internalType":"bool"}],"outputs":[],"stateMutability":"nonpayable"}],"bytecode":{"object":"0x60806040525f6001555f6002555f600355348015601a575f5ffd5b506040516142a23803806142a28339810160408190526037916099565b600480546001600160a01b039384166001600160a01b0319918216811790925560058054939094169281168317909355600f8054841690911790555f805490921617905560c5565b80516001600160a01b03811681146094575f5ffd5b919050565b5f5f6040838503121560a9575f5ffd5b60b083607f565b915060bc60208401607f565b90509250929050565b6141d0806100d25f395ff3fe608060405234801561000f575f5ffd5b50600436106101db575f3560e01c80638ab7e6b511610109578063cd8692b01161009e578063e6767a4b1161006e578063e6767a4b14610479578063efd441d51461048c578063f9faec001461049f578063fbd1b396146104b2575f5ffd5b8063cd8692b01461042b578063cdc6a6181461043e578063d54f3a4114610451578063e416986614610464575f5ffd5b80639ae57ee3116100d95780639ae57ee3146103dc5780639d8eb84e146103f2578063c6fee31414610405578063c9d27afe14610418575f5ffd5b80638ab7e6b51461036c57806396b946d81461037f57806397d4e30c1461039f57806399758ef2146103c9575f5ffd5b80632b7ac3f31161017f57806366f59cf71161014f57806366f59cf71461032057806367aa46b51461033357806382a71ef21461034657806388da10ae14610359575f5ffd5b80632b7ac3f3146102a657806330d4a63a146102d0578063437b7837146102fa578063625d42011461030d575f5ffd5b806320e0df2d116101ba57806320e0df2d1461023d578063216e14fb1461025257806323d4b980146102675780632b2a2a1414610291575f5ffd5b8062c59439146101df578063115dbad6146101f45780631aa2d74d1461021d575b5f5ffd5b6101f26101ed366004613299565b6104c5565b005b610207610202366004613299565b6104f1565b60405161021491906133f1565b60405180910390f35b61023061022b366004613299565b6107cc565b604051610214919061340a565b610245610bcd565b604051610214919061346d565b61025a610f8c565b6040516102149190613510565b61027a610275366004613299565b6111ca565b6040516102149b9a9998979695949392919061360d565b6102996113ba565b6040516102149190613742565b5f546102b8906001600160a01b031681565b6040516001600160a01b039091168152602001610214565b6102e36102de3660046137b4565b611521565b6040516102149b9a999897969594939291906137dc565b6102e3610308366004613299565b611625565b6101f261031b366004613299565b61166c565b6101f261032e3660046138f9565b611918565b6101f2610341366004613a15565b611aa5565b600f546102b8906001600160a01b031681565b6005546102b8906001600160a01b031681565b6101f261037a366004613af1565b611c15565b61039261038d3660046137b4565b611c54565b6040516102149190613b87565b6103b26103ad3660046137b4565b611e0e565b6040516102149b9a99989796959493929190613b99565b6102b86103d7366004613c0c565b611f16565b6103e4611f4a565b604051908152602001610214565b6102b8610400366004613c0c565b611fd2565b6101f2610413366004613299565b611feb565b6101f2610426366004613c39565b6122bb565b6004546102b8906001600160a01b031681565b6101f261044c366004613c77565b6125ef565b6103b261045f366004613299565b6128dd565b61046c61293b565b6040516102149190613d45565b61027a610487366004613e12565b612bc2565b6101f261049a366004613c0c565b612bdc565b61046c6104ad366004613e12565b612eed565b6102b86104c0366004613c0c565b61317e565b335f908152600660205260408120600981018054919284926104e8908490613e3f565b90915550505050565b6105546040518061018001604052805f81526020015f6001600160a01b031681526020015f81526020015f81526020015f8152602001606081526020015f81526020015f8152602001606081526020015f81526020015f81526020015f81525090565b5f828152600d60205260409020805483146105b65760405162461bcd60e51b815260206004820152600f60248201527f436c61696d206e6f7420666f756e64000000000000000000000000000000000060448201526064015b60405180910390fd5b60088101546009820154600a83015460038401544210156105de57505f9150819050806105f1565b50505060088101546009820154600a8301545b60408051610180810182528554815260018601546001600160a01b03166020820152600286015491810191909152600385015460608201526004850154608082015260058501805460a08301919061064890613e52565b80601f016020809104026020016040519081016040528092919081815260200182805461067490613e52565b80156106bf5780601f10610696576101008083540402835291602001916106bf565b820191905f5260205f20905b8154815290600101906020018083116106a257829003601f168201915b50505050508152602001856006015481526020018560070154815260200185600b01805480602002602001604051908101604052809291908181526020015f905b828210156107a8578382905f5260205f2001805461071d90613e52565b80601f016020809104026020016040519081016040528092919081815260200182805461074990613e52565b80156107945780601f1061076b57610100808354040283529160200191610794565b820191905f5260205f20905b81548152906001019060200180831161077757829003601f168201915b505050505081526020019060010190610700565b50505050815260200184815260200183815260200182815250945050505050919050565b60605f805b600254811015610809575f818152600d602052604090206004015484900361080157816107fd81613e8a565b9250505b6001016107d1565b505f8167ffffffffffffffff81111561082457610824613848565b6040519080825280602002602001820160405280156108b857816020015b6108a56040518061018001604052805f81526020015f6001600160a01b031681526020015f81526020015f81526020015f8152602001606081526020015f81526020015f8152602001606081526020015f81526020015f81526020015f81525090565b8152602001906001900390816108425790505b5090505f805b600254811015610bc3575f818152600d602090815260408083208151610180810183528154815260018201546001600160a01b031693810193909352600281015491830191909152600381015460608301526004810154608083015260058101805460a08401919061092f90613e52565b80601f016020809104026020016040519081016040528092919081815260200182805461095b90613e52565b80156109a65780601f1061097d576101008083540402835291602001916109a6565b820191905f5260205f20905b81548152906001019060200180831161098957829003601f168201915b5050505050815260200160068201548152602001600782015481526020016008820154815260200160098201548152602001600a8201548152602001600b8201805480602002602001604051908101604052809291908181526020015f905b82821015610aad578382905f5260205f20018054610a2290613e52565b80601f0160208091040260200160405190810160405280929190818152602001828054610a4e90613e52565b8015610a995780601f10610a7057610100808354040283529160200191610a99565b820191905f5260205f20905b815481529060010190602001808311610a7c57829003601f168201915b505050505081526020019060010190610a05565b5050505081525050905086816080015103610bba575f816060015142118015610ad95750608082015115155b9050604051806101800160405280835f0151815260200183602001516001600160a01b031681526020018360400151815260200183606001518152602001836080015181526020018360a0015181526020018360c0015181526020018360e001518152602001836101600151815260200182610b55575f610b5c565b8361010001515b815260200182610b6c575f610b73565b8361012001515b815260200182610b83575f610b8a565b8361014001515b815250858581518110610b9f57610b9f613ea2565b60200260200101819052508380610bb590613e8a565b945050505b506001016108be565b5090949350505050565b60605f60015467ffffffffffffffff811115610beb57610beb613848565b604051908082528060200260200182016040528015610c4657816020015b610c3360405180608001604052806060815260200160608152602001606081526020015f81525090565b815260200190600190039081610c095790505b5090505f805b600154811015610f84575f818152600e602052604080822081516101608101909252805482908290610c7d90613e52565b80601f0160208091040260200160405190810160405280929190818152602001828054610ca990613e52565b8015610cf45780601f10610ccb57610100808354040283529160200191610cf4565b820191905f5260205f20905b815481529060010190602001808311610cd757829003601f168201915b50505050508152602001600182018054610d0d90613e52565b80601f0160208091040260200160405190810160405280929190818152602001828054610d3990613e52565b8015610d845780601f10610d5b57610100808354040283529160200191610d84565b820191905f5260205f20905b815481529060010190602001808311610d6757829003601f168201915b50505050508152602001600282018054610d9d90613e52565b80601f0160208091040260200160405190810160405280929190818152602001828054610dc990613e52565b8015610e145780601f10610deb57610100808354040283529160200191610e14565b820191905f5260205f20905b815481529060010190602001808311610df757829003601f168201915b50505050508152602001600382015f9054906101000a90046001600160a01b03166001600160a01b03166001600160a01b03168152602001600482015481526020016005820154815260200160068201548152602001600782015481526020016008820154815260200160098201548152602001600a8201548152505090506040518060800160405280825f015181526020018260200151815260200182604001518152602001600f5f9054906101000a90046001600160a01b03166001600160a01b03166370a0823184606001516040518263ffffffff1660e01b8152600401610f0e91906001600160a01b0391909116815260200190565b602060405180830381865afa158015610f29573d5f5f3e3d5ffd5b505050506040513d601f19601f82011682018060405250810190610f4d9190613eb6565b815250848481518110610f6257610f62613ea2565b60200260200101819052508280610f7890613e8a565b93505050600101610c4c565b509092915050565b335f908152600760209081526040808320805482518185028101850190935280835260609492939192909184015b828210156111c1575f8481526020908190206040805161018081018252600c86029092018054835260018101546001600160a01b031693830193909352600283015490820152600382015460608201526004820154608082015260058201805491929160a08401919061102c90613e52565b80601f016020809104026020016040519081016040528092919081815260200182805461105890613e52565b80156110a35780601f1061107a576101008083540402835291602001916110a3565b820191905f5260205f20905b81548152906001019060200180831161108657829003601f168201915b5050505050815260200160068201548152602001600782015481526020016008820154815260200160098201548152602001600a8201548152602001600b8201805480602002602001604051908101604052809291908181526020015f905b828210156111aa578382905f5260205f2001805461111f90613e52565b80601f016020809104026020016040519081016040528092919081815260200182805461114b90613e52565b80156111965780601f1061116d57610100808354040283529160200191611196565b820191905f5260205f20905b81548152906001019060200180831161117957829003601f168201915b505050505081526020019060010190611102565b505050508152505081526020019060010190610fba565b50505050905090565b600e6020525f90815260409020805481906111e490613e52565b80601f016020809104026020016040519081016040528092919081815260200182805461121090613e52565b801561125b5780601f106112325761010080835404028352916020019161125b565b820191905f5260205f20905b81548152906001019060200180831161123e57829003601f168201915b50505050509080600101805461127090613e52565b80601f016020809104026020016040519081016040528092919081815260200182805461129c90613e52565b80156112e75780601f106112be576101008083540402835291602001916112e7565b820191905f5260205f20905b8154815290600101906020018083116112ca57829003601f168201915b5050505050908060020180546112fc90613e52565b80601f016020809104026020016040519081016040528092919081815260200182805461132890613e52565b80156113735780601f1061134a57610100808354040283529160200191611373565b820191905f5260205f20905b81548152906001019060200180831161135657829003601f168201915b50505060038401546004850154600586015460068701546007880154600889015460098a0154600a909a015498996001600160a01b0390961698949750929550909390928b565b335f908152600860209081526040808320805482518185028101850190935280835260609492939192909184015b828210156111c1575f8481526020908190206040805161016081018252600b86029092018054835260018101546001600160a01b03908116948401949094526002810154909316908201526003820154606082015260048201546080820152600582015460a0820152600682015460c0820152600782015460e08201526008820180549192916101008401919061147e90613e52565b80601f01602080910402602001604051908101604052809291908181526020018280546114aa90613e52565b80156114f55780601f106114cc576101008083540402835291602001916114f5565b820191905f5260205f20905b8154815290600101906020018083116114d857829003601f168201915b5050505050815260200160098201548152602001600a82015481525050815260200190600101906113e8565b6007602052815f5260405f20818154811061153a575f80fd5b5f9182526020909120600c90910201805460018201546002830154600384015460048501546005860180549598506001600160a01b039094169650919490939192909161158690613e52565b80601f01602080910402602001604051908101604052809291908181526020018280546115b290613e52565b80156115fd5780601f106115d4576101008083540402835291602001916115fd565b820191905f5260205f20905b8154815290600101906020018083116115e057829003601f168201915b50505050509080600601549080600701549080600801549080600901549080600a015490508b565b600d6020525f908152604090208054600182015460028301546003840154600485015460058601805495966001600160a01b03909516959394929391929161158690613e52565b5f818152600c602052604090206003810154815483146116ce5760405162461bcd60e51b815260206004820152601160248201527f52657175657374206e6f7420666f756e6400000000000000000000000000000060448201526064016105ad565b60018201546001600160a01b0316331461172a5760405162461bcd60e51b815260206004820152601960248201527f4f6e6c7920626f72726f7765722063616e207061796261636b0000000000000060448201526064016105ad565b816004015460011461177e5760405162461bcd60e51b815260206004820152601460248201527f52657175657374206e6f7420616363657074656400000000000000000000000060448201526064016105ad565b81600301548111156117d25760405162461bcd60e51b815260206004820152601f60248201527f416d6f756e74206578636565647320626f72726f77656420637265646974730060448201526064016105ad565b5f6301e133808360060154426117e89190613ecd565b6064856005015486600301546117fe9190613ee0565b6118089190613ef7565b6118129190613ee0565b61181c9190613ef7565b600f546040517f9dc29fac000000000000000000000000000000000000000000000000000000008152336004820152602481018390529192506001600160a01b031690639dc29fac906044015f604051808303815f87803b15801561187f575f5ffd5b505af1158015611891573d5f5f3e3d5ffd5b5050600f5460028601546040516340c10f1960e01b81526001600160a01b03918216600482015260248101869052911692506340c10f1991506044015f604051808303815f87803b1580156118e4575f5ffd5b505af11580156118f6573d5f5f3e3d5ffd5b5050505080836003015f82825461190d9190613ecd565b909155505050505050565b335f818152600760209081526040822080546001818101835591845291832060028054600c909402909101928355908201805473ffffffffffffffffffffffffffffffffffffffff1916909417909355918201889055600382018790556004820155600581016119888682613f61565b5060068101849055600781018390555f6008820181905560098201819055600a82015581516119c090600b8301906020850190613197565b50600280545f908152600d6020526040902082548155600180840154908201805473ffffffffffffffffffffffffffffffffffffffff19166001600160a01b03909216919091179055818301549181019190915560038083015490820155600480830154908201558190600580820190611a3c9084018261401f565b5060068201548160060155600782015481600701556008820154816008015560098201548160090155600a82015481600a0155600b820181600b01908054611a859291906131eb565b50506002805491505f611a9783613e8a565b919050555050505050505050565b335f90815260066020526040902080611abe8d82613f61565b5060018101611acd8c82613f61565b5060028101611adc8b82613f61565b5060038101805473ffffffffffffffffffffffffffffffffffffffff19166001600160a01b038b1617905560048101889055600581018790555f60068201819055600782018190556008820181905560098201819055600a82018190556001548152600e60205260409020819080611b54838261401f565b50600181810190611b679084018261401f565b50600281810190611b7a9084018261401f565b50600382810154908201805473ffffffffffffffffffffffffffffffffffffffff19166001600160a01b03909216919091179055600480830154908201556005808301549082015560068083015490820155600780830154908201556008808301549082015560098083015490820155600a9182015491015560018054905f611c0283613e8a565b9190505550505050505050505050505050565b335f90815260066020526040902080611c2e8682613f61565b5060018101611c3d8582613f61565b5060028101611c4c8482613f61565b505050505050565b611cb96040518061016001604052805f81526020015f6001600160a01b031681526020015f6001600160a01b031681526020015f81526020015f81526020015f81526020015f81526020015f8152602001606081526020015f81526020015f81525090565b6001600160a01b0383165f908152600860205260409020805483908110611ce257611ce2613ea2565b5f9182526020918290206040805161016081018252600b9093029091018054835260018101546001600160a01b03908116948401949094526002810154909316908201526003820154606082015260048201546080820152600582015460a0820152600682015460c0820152600782015460e082015260088201805491929161010084019190611d7190613e52565b80601f0160208091040260200160405190810160405280929190818152602001828054611d9d90613e52565b8015611de85780601f10611dbf57610100808354040283529160200191611de8565b820191905f5260205f20905b815481529060010190602001808311611dcb57829003601f168201915b5050505050815260200160098201548152602001600a8201548152505090505b92915050565b6008602052815f5260405f208181548110611e27575f80fd5b5f9182526020909120600b9091020180546001820154600283015460038401546004850154600586015460068701546007880154600889018054989b506001600160a01b039788169a50959096169793969295919490939192611e8990613e52565b80601f0160208091040260200160405190810160405280929190818152602001828054611eb590613e52565b8015611f005780601f10611ed757610100808354040283529160200191611f00565b820191905f5260205f20905b815481529060010190602001808311611ee357829003601f168201915b50505050509080600901549080600a015490508b565b6009602052815f5260405f208181548110611f2f575f80fd5b5f918252602090912001546001600160a01b03169150829050565b600f546040517f70a082310000000000000000000000000000000000000000000000000000000081523360048201525f916001600160a01b0316906370a0823190602401602060405180830381865afa158015611fa9573d5f5f3e3d5ffd5b505050506040513d601f19601f82011682018060405250810190611fcd9190613eb6565b905090565b600b602052815f5260405f208181548110611f2f575f80fd5b5f818152600d60205260409020805482146120485760405162461bcd60e51b815260206004820152600f60248201527f436c61696d206e6f7420666f756e64000000000000000000000000000000000060448201526064016105ad565b8060030154421161209b5760405162461bcd60e51b815260206004820152601b60248201527f566f74696e6720706572696f6420686173206e6f7420656e646564000000000060448201526064016105ad565b6004810154156120ed5760405162461bcd60e51b815260206004820152601460248201527f436c61696d206973206e6f742070656e64696e6700000000000000000000000060448201526064016105ad565b80600901548160080154111561222a5760016004828101829055908201546001600160a01b039081165f8181526006602052604090819020600f54600287015492516340c10f1960e01b8152958601939093526024850191909152929116906340c10f19906044015f604051808303815f87803b15801561216c575f5ffd5b505af115801561217e573d5f5f3e3d5ffd5b505050508160020154816008015f8282546121999190613e3f565b909155505f90505b5f848152600a6020526040902054811015612224575f848152600a6020526040812080546006918391859081106121da576121da613ea2565b5f9182526020808320909101546001600160a01b031683528201929092526040018120600a810180549193506005929091612216908490613e3f565b9091555050506001016121a1565b50505050565b5f5b5f838152600b60205260409020548110156122af575f838152600b60205260408120805460069183918590811061226557612265613ea2565b5f9182526020808320909101546001600160a01b031683528201929092526040018120600a8101805491935060059290916122a1908490613e3f565b90915550505060010161222c565b50600260048201555050565b5f828152600d60205260409020805483146123185760405162461bcd60e51b815260206004820152600f60248201527f436c61696d206e6f7420666f756e64000000000000000000000000000000000060448201526064016105ad565b8060030154421061236b5760405162461bcd60e51b815260206004820152601760248201527f566f74696e6720706572696f642068617320656e64656400000000000000000060448201526064016105ad565b60018101546001600160a01b031633036123ed5760405162461bcd60e51b815260206004820152602960248201527f4f7267616e69736174696f6e2063616e6e6f7420766f7465206f6e206974732060448201527f6f776e20636c61696d000000000000000000000000000000000000000000000060648201526084016105ad565b60048101541561243f5760405162461bcd60e51b815260206004820152601460248201527f436c61696d206973206e6f742070656e64696e6700000000000000000000000060448201526064016105ad565b5f5b5f848152600960205260409020548110156124e1575f84815260096020526040902080543391908390811061247857612478613ea2565b5f918252602090912001546001600160a01b0316036124d95760405162461bcd60e51b815260206004820152601660248201527f596f75206861766520616c726561647920766f7465640000000000000000000060448201526064016105ad565b600101612441565b505f83815260096020908152604082208054600181018255908352912001805473ffffffffffffffffffffffffffffffffffffffff1916331790558115612561575f838152600a6020908152604082208054600181018255908352912001805473ffffffffffffffffffffffffffffffffffffffff19163317905561259c565b5f838152600b6020908152604082208054600181018255908352912001805473ffffffffffffffffffffffffffffffffffffffff1916331790555b81156125bd57600881018054905f6125b383613e8a565b91905055506125d4565b600981018054905f6125ce83613e8a565b91905055505b600a81018054905f6125e583613e8a565b9190505550505050565b5f546040517fc32e370e0000000000000000000000000000000000000000000000000000000081526001600160a01b039091169063c32e370e9061263f90889088908890889088906004016140ec565b602060405180830381865afa15801561265a573d5f5f3e3d5ffd5b505050506040513d601f19601f8201168201806040525081019061267e919061417f565b6126ca5760405162461bcd60e51b815260206004820152600d60248201527f496e76616c69642070726f6f660000000000000000000000000000000000000060448201526064016105ad565b5f82825f8181106126dd576126dd613ea2565b9050602002013590505f838360018181106126fa576126fa613ea2565b9050602002013590505f878787878760405160200161271d9594939291906140ec565b60405160208183030381529060405290505f60085f336001600160a01b03166001600160a01b031681526020019081526020015f2060018160018154018082558091505003905f5260205f2090600b02019050600354815f018190555033816001015f6101000a8154816001600160a01b0302191690836001600160a01b031602179055508b816002015f6101000a8154816001600160a01b0302191690836001600160a01b031602179055508a81600301819055505f8160040181905550898160050181905550428160060181905550838160070181905550818160080190816128089190613f61565b505f60098201819055600a8201849055600380548252600c60205260409091208254815560018084015490820180546001600160a01b0392831673ffffffffffffffffffffffffffffffffffffffff1991821617909155600280860154908401805491909316911617905581830154918101919091556004808301549082015560058083015490820155600680830154908201556007808301549082015581906008808201906128ba9084018261401f565b5060098281015490820155600a9182015491015560038054905f611c0283613e8a565b600c6020525f908152604090208054600182015460028301546003840154600485015460058601546006870154600788015460088901805498996001600160a01b0398891699979098169795969495939492939192611e8990613e52565b6129996040518061016001604052806060815260200160608152602001606081526020015f6001600160a01b031681526020015f81526020015f81526020015f81526020015f81526020015f81526020015f81526020015f81525090565b335f9081526006602052604090819020815161016081019092528054829082906129c290613e52565b80601f01602080910402602001604051908101604052809291908181526020018280546129ee90613e52565b8015612a395780601f10612a1057610100808354040283529160200191612a39565b820191905f5260205f20905b815481529060010190602001808311612a1c57829003601f168201915b50505050508152602001600182018054612a5290613e52565b80601f0160208091040260200160405190810160405280929190818152602001828054612a7e90613e52565b8015612ac95780601f10612aa057610100808354040283529160200191612ac9565b820191905f5260205f20905b815481529060010190602001808311612aac57829003601f168201915b50505050508152602001600282018054612ae290613e52565b80601f0160208091040260200160405190810160405280929190818152602001828054612b0e90613e52565b8015612b595780601f10612b3057610100808354040283529160200191612b59565b820191905f5260205f20905b815481529060010190602001808311612b3c57829003601f168201915b505050918352505060038201546001600160a01b03166020820152600482015460408201526005820154606082015260068201546080820152600782015460a0820152600882015460c0820152600982015460e0820152600a9091015461010090910152919050565b60066020525f90815260409020805481906111e490613e52565b5f828152600c6020526040902080548314612c395760405162461bcd60e51b815260206004820152601160248201527f52657175657374206e6f7420666f756e6400000000000000000000000000000060448201526064016105ad565b60028101546001600160a01b03163314612c955760405162461bcd60e51b815260206004820152601760248201527f4f6e6c79206c656e6465722063616e20726573706f6e6400000000000000000060448201526064016105ad565b600481015415612ce75760405162461bcd60e51b815260206004820152601960248201527f5265717565737420616c726561647920726573706f6e6465640000000000000060448201526064016105ad565b8160011480612cf65750816002145b612d425760405162461bcd60e51b815260206004820152601060248201527f496e76616c696420726573706f6e73650000000000000000000000000000000060448201526064016105ad565b600481018290556001829003612ee85760018101546001600160a01b03165f908152600660205260408120600383015460078201805492939192909190612d8a908490613e3f565b9091555050600481018054905f612da083613e8a565b909155505060028201546001600160a01b03165f90815260066020819052604082206003850154918101805491939091612ddb908490613e3f565b9091555050600581018054905f612df183613e8a565b9091555050600f54600184015460038501546040516340c10f1960e01b81526001600160a01b03928316600482015260248101919091529116906340c10f19906044015f604051808303815f87803b158015612e4b575f5ffd5b505af1158015612e5d573d5f5f3e3d5ffd5b5050600f54600286015460038701546040517f9dc29fac0000000000000000000000000000000000000000000000000000000081526001600160a01b039283166004820152602481019190915291169250639dc29fac91506044015f604051808303815f87803b158015612ecf575f5ffd5b505af1158015612ee1573d5f5f3e3d5ffd5b5050505050505b505050565b612f4b6040518061016001604052806060815260200160608152602001606081526020015f6001600160a01b031681526020015f81526020015f81526020015f81526020015f81526020015f81526020015f81526020015f81525090565b6001600160a01b0382165f908152600660205260409081902081516101608101909252805482908290612f7d90613e52565b80601f0160208091040260200160405190810160405280929190818152602001828054612fa990613e52565b8015612ff45780601f10612fcb57610100808354040283529160200191612ff4565b820191905f5260205f20905b815481529060010190602001808311612fd757829003601f168201915b5050505050815260200160018201805461300d90613e52565b80601f016020809104026020016040519081016040528092919081815260200182805461303990613e52565b80156130845780601f1061305b57610100808354040283529160200191613084565b820191905f5260205f20905b81548152906001019060200180831161306757829003601f168201915b5050505050815260200160028201805461309d90613e52565b80601f01602080910402602001604051908101604052809291908181526020018280546130c990613e52565b80156131145780601f106130eb57610100808354040283529160200191613114565b820191905f5260205f20905b8154815290600101906020018083116130f757829003601f168201915b505050918352505060038201546001600160a01b03166020820152600482015460408201526005820154606082015260068201546080820152600782015460a0820152600882015460c0820152600982015460e0820152600a909101546101009091015292915050565b600a602052815f5260405f208181548110611f2f575f80fd5b828054828255905f5260205f209081019282156131db579160200282015b828111156131db57825182906131cb9082613f61565b50916020019190600101906131b5565b506131e792915061322f565b5090565b828054828255905f5260205f209081019282156131db575f5260205f209182015b828111156131db578161321f848261401f565b509160010191906001019061320c565b808211156131e7575f613242828261324b565b5060010161322f565b50805461325790613e52565b5f825580601f10613266575050565b601f0160209004905f5260205f20908101906132829190613285565b50565b5b808211156131e7575f8155600101613286565b5f602082840312156132a9575f5ffd5b5035919050565b5f81518084528060208401602086015e5f602082860101526020601f19601f83011685010191505092915050565b5f82825180855260208501945060208160051b830101602085015f5b8381101561332c57601f198584030188526133168383516132b0565b60209889019890935091909101906001016132fa565b50909695505050505050565b805182525f602082015161335760208501826001600160a01b03169052565b5060408201516040840152606082015160608401526080820151608084015260a082015161018060a08501526133916101808501826132b0565b905060c083015160c085015260e083015160e08501526101008301518482036101008601526133c082826132de565b9150506101208301516101208501526101408301516101408501526101608301516101608501528091505092915050565b602081525f6134036020830184613338565b9392505050565b5f602082016020835280845180835260408501915060408160051b8601019250602086015f5b8281101561346157603f1987860301845261344c858351613338565b94506020938401939190910190600101613430565b50929695505050505050565b5f602082016020835280845180835260408501915060408160051b8601019250602086015f5b8281101561346157603f1987860301845281518051608087526134b960808801826132b0565b9050602082015187820360208901526134d282826132b0565b915050604082015187820360408901526134ec82826132b0565b60609384015198909301979097525094506020938401939190910190600101613493565b5f602082016020835280845180835260408501915060408160051b8601019250602086015f5b8281101561346157603f19878603018452815180518652602081015161356760208801826001600160a01b03169052565b5060408101516040870152606081015160608701526080810151608087015260a081015161018060a08801526135a16101808801826132b0565b905060c082015160c088015260e082015160e088015261010082015161010088015261012082015161012088015261014082015161014088015261016082015191508681036101608801526135f681836132de565b965050506020938401939190910190600101613536565b61016081525f61362161016083018e6132b0565b8281036020840152613633818e6132b0565b90508281036040840152613647818d6132b0565b6001600160a01b039b909b1660608401525050608081019790975260a087019590955260c086019390935260e0850191909152610100840152610120830152610140909101529392505050565b805182525f60208201516136b360208501826001600160a01b03169052565b5060408201516136ce60408501826001600160a01b03169052565b50606082015160608401526080820151608084015260a082015160a084015260c082015160c084015260e082015160e084015261010082015161016061010085015261371e6101608501826132b0565b90506101208301516101208501526101408301516101408501528091505092915050565b5f602082016020835280845180835260408501915060408160051b8601019250602086015f5b8281101561346157603f19878603018452613784858351613694565b94506020938401939190910190600101613768565b80356001600160a01b03811681146137af575f5ffd5b919050565b5f5f604083850312156137c5575f5ffd5b6137ce83613799565b946020939093013593505050565b8b81526001600160a01b038b16602082015289604082015288606082015287608082015261016060a08201525f6138176101608301896132b0565b60c08301979097525060e0810194909452610100840192909252610120830152610140909101529695505050505050565b634e487b7160e01b5f52604160045260245ffd5b604051601f8201601f1916810167ffffffffffffffff8111828210171561388557613885613848565b604052919050565b5f82601f83011261389c575f5ffd5b813567ffffffffffffffff8111156138b6576138b6613848565b6138c96020601f19601f8401160161385c565b8181528460208386010111156138dd575f5ffd5b816020850160208301375f918101602001919091529392505050565b5f5f5f5f5f5f60c0878903121561390e575f5ffd5b8635955060208701359450604087013567ffffffffffffffff811115613932575f5ffd5b61393e89828a0161388d565b945050606087013592506080870135915060a087013567ffffffffffffffff811115613968575f5ffd5b8701601f81018913613978575f5ffd5b803567ffffffffffffffff81111561399257613992613848565b8060051b6139a26020820161385c565b9182526020818401810192908101908c8411156139bd575f5ffd5b6020850192505b83831015613a0357823567ffffffffffffffff8111156139e2575f5ffd5b6139f18e60208389010161388d565b835250602092830192909101906139c4565b80955050505050509295509295509295565b5f5f5f5f5f5f5f5f5f5f5f6101608c8e031215613a30575f5ffd5b8b3567ffffffffffffffff811115613a46575f5ffd5b613a528e828f0161388d565b9b505060208c013567ffffffffffffffff811115613a6e575f5ffd5b613a7a8e828f0161388d565b9a505060408c013567ffffffffffffffff811115613a96575f5ffd5b613aa28e828f0161388d565b995050613ab160608d01613799565b9a9d999c50979a60808101359960a0820135995060c0820135985060e0820135975061010082013596506101208201359550610140909101359350915050565b5f5f5f5f60808587031215613b04575f5ffd5b843567ffffffffffffffff811115613b1a575f5ffd5b613b268782880161388d565b945050602085013567ffffffffffffffff811115613b42575f5ffd5b613b4e8782880161388d565b935050604085013567ffffffffffffffff811115613b6a575f5ffd5b613b768782880161388d565b949793965093946060013593505050565b602081525f6134036020830184613694565b8b81526001600160a01b038b1660208201526001600160a01b038a1660408201528860608201528760808201528660a08201528560c08201528460e08201526101606101008201525f613bf06101608301866132b0565b6101208301949094525061014001529998505050505050505050565b5f5f60408385031215613c1d575f5ffd5b50508035926020909101359150565b8015158114613282575f5ffd5b5f5f60408385031215613c4a575f5ffd5b823591506020830135613c5c81613c2c565b809150509250929050565b8060408101831015611e08575f5ffd5b5f5f5f5f5f5f5f5f610180898b031215613c8f575f5ffd5b613c9889613799565b97506020890135965060408901359550613cb58a60608b01613c67565b945061012089018a811115613cc8575f5ffd5b60a08a019450613cd88b82613c67565b93505061016089013567ffffffffffffffff811115613cf5575f5ffd5b8901601f81018b13613d05575f5ffd5b803567ffffffffffffffff811115613d1b575f5ffd5b8b60208260051b8401011115613d2f575f5ffd5b989b979a50959850939692959194602001935050565b602081525f82516101606020840152613d626101808401826132b0565b90506020840151601f19848303016040850152613d7f82826132b0565b9150506040840151601f19848303016060850152613d9d82826132b0565b9150506060840151613dba60808501826001600160a01b03169052565b50608084015160a084015260a084015160c084015260c084015160e084015260e08401516101008401526101008401516101208401526101208401516101408401526101408401516101608401528091505092915050565b5f60208284031215613e22575f5ffd5b61340382613799565b634e487b7160e01b5f52601160045260245ffd5b80820180821115611e0857611e08613e2b565b600181811c90821680613e6657607f821691505b602082108103613e8457634e487b7160e01b5f52602260045260245ffd5b50919050565b5f60018201613e9b57613e9b613e2b565b5060010190565b634e487b7160e01b5f52603260045260245ffd5b5f60208284031215613ec6575f5ffd5b5051919050565b81810381811115611e0857611e08613e2b565b8082028115828204841417611e0857611e08613e2b565b5f82613f1157634e487b7160e01b5f52601260045260245ffd5b500490565b601f821115612ee857805f5260205f20601f840160051c81016020851015613f3b5750805b601f840160051c820191505b81811015613f5a575f8155600101613f47565b5050505050565b815167ffffffffffffffff811115613f7b57613f7b613848565b613f8f81613f898454613e52565b84613f16565b6020601f821160018114613fc4575f8315613faa5750848201515b600184901b5f19600386901b1c198216175b855550613f5a565b5f84815260208120601f198516915b82811015613ff35787850151825560209485019460019092019101613fd3565b508482101561401057868401515f19600387901b60f8161c191681555b50505050600190811b01905550565b81810361402a575050565b6140348254613e52565b67ffffffffffffffff81111561404c5761404c613848565b61405a81613f898454613e52565b5f601f821160018114614089575f8315613faa575081850154600184901b5f19600386901b1c19821617613fbc565b5f8581526020808220868352908220601f198616925b838110156140bf578286015482556001958601959091019060200161409f565b50858310156140dc57818501545f19600388901b60f8161c191681555b5050505050600190811b01905550565b60408682375f60408201865f5b600281101561411a57604082843760409283019291909101906001016140f9565b50505060408560c0840137610120610100830152826101208301527f07ffffffffffffffffffffffffffffffffffffffffffffffffffffffffffffff831115614161575f5ffd5b8260051b808561014085013791909101610140019695505050505050565b5f6020828403121561418f575f5ffd5b815161340381613c2c56fea26469706673582212208ece68c28e3b82dacaabe73500f7f082c5de84168e74c9f680586d4651f79ddc64736f6c634300081c0033","linkReferences":{}},"methodIdentifiers":{"addressToClaims(address,uint256)":"30d4a63a","addressToLendRequests(address,uint256)":"97d4e30c","addressToOrganisation(address)":"e6767a4b","carbonToken()":"82a71ef2","carbonTokenAddress()":"cd8692b0","claimIdToClaim(uint256)":"437b7837","claimIdToVoters(uint256,uint256)":"99758ef2","claimIdToVotersNo(uint256,uint256)":"9d8eb84e","claimIdToVotersYes(uint256,uint256)":"fbd1b396","createClaim(uint256,uint256,string,uint256,uint256,string[])":"66f59cf7","createLendRequest(address,uint256,uint256,uint256[2],uint256[2][2],uint256[2],uint256[])":"cdc6a618","createOrganisation(string,string,string,address,uint256,uint256,uint256,uint256,uint256,uint256,uint256)":"67aa46b5","getAllOrganisationDetails()":"20e0df2d","getBalanceOfOrganisation()":"9ae57ee3","getClaimDetailsPublic(uint256)":"115dbad6","getClaimsByStatus(uint256)":"1aa2d74d","getLendRequestDetails(address,uint256)":"96b946d8","getMyOrganisationDetails()":"e4169866","getOrganisationDetails(address)":"f9faec00","getUserClaims()":"216e14fb","getUserLendRequests()":"2b2a2a14","handleVotingResult(uint256)":"c6fee314","lendrequestIdToLendRequest(uint256)":"d54f3a41","organisationIDToOrganisation(uint256)":"23d4b980","paybackLendRequest(uint256)":"625d4201","recordOrganisationEmissions(uint256)":"00c59439","respondToLendRequest(uint256,uint256)":"efd441d5","updateOrganisationDetails(string,string,string,uint256)":"8ab7e6b5","verifier()":"2b7ac3f3","verifierProofAddress()":"88da10ae","vote(uint256,bool)":"c9d27afe"},"id":22}